{
	"Study/Location.sol": {
		"text": {
			"abi": [
				{
					"inputs": [],
					"name": "bar",
					"outputs": [
						{
							"internalType": "uint256",
							"name": "",
							"type": "uint256"
						}
					],
					"stateMutability": "pure",
					"type": "function"
				},
				{
					"inputs": [],
					"name": "change",
					"outputs": [],
					"stateMutability": "nonpayable",
					"type": "function"
				},
				{
					"inputs": [
						{
							"internalType": "uint256[]",
							"name": "_x",
							"type": "uint256[]"
						}
					],
					"name": "fCalldata",
					"outputs": [
						{
							"internalType": "uint256[]",
							"name": "",
							"type": "uint256[]"
						}
					],
					"stateMutability": "pure",
					"type": "function"
				},
				{
					"inputs": [],
					"name": "fMemory",
					"outputs": [],
					"stateMutability": "view",
					"type": "function"
				},
				{
					"inputs": [],
					"name": "fStorage",
					"outputs": [
						{
							"internalType": "uint256",
							"name": "",
							"type": "uint256"
						}
					],
					"stateMutability": "nonpayable",
					"type": "function"
				},
				{
					"inputs": [],
					"name": "y",
					"outputs": [
						{
							"internalType": "uint256",
							"name": "",
							"type": "uint256"
						}
					],
					"stateMutability": "view",
					"type": "function"
				},
				{
					"inputs": [],
					"name": "z",
					"outputs": [
						{
							"internalType": "string",
							"name": "",
							"type": "string"
						}
					],
					"stateMutability": "view",
					"type": "function"
				}
			],
			"devdoc": {
				"kind": "dev",
				"methods": {},
				"version": 1
			},
			"evm": {
				"assembly": "    /* \"Study/Location.sol\":60:1238  contract text{... */\n  mstore(0x40, 0x80)\n    /* \"Study/Location.sol\":116:134  uint[] x = [1,2,3] */\n  mload(0x40)\n  dup1\n  0x60\n  add\n  0x40\n  mstore\n  dup1\n    /* \"Study/Location.sol\":128:129  1 */\n  0x01\n    /* \"Study/Location.sol\":116:134  uint[] x = [1,2,3] */\n  0xff\n  and\n  dup2\n  mstore\n  0x20\n  add\n    /* \"Study/Location.sol\":130:131  2 */\n  0x02\n    /* \"Study/Location.sol\":116:134  uint[] x = [1,2,3] */\n  0xff\n  and\n  dup2\n  mstore\n  0x20\n  add\n    /* \"Study/Location.sol\":132:133  3 */\n  0x03\n    /* \"Study/Location.sol\":116:134  uint[] x = [1,2,3] */\n  0xff\n  and\n  dup2\n  mstore\n  pop\n  0x00\n  swap1\n  0x03\n  tag_1\n  swap3\n  swap2\n  swap1\n  tag_2\n  jump\t// in\ntag_1:\n  pop\n    /* \"Study/Location.sol\":60:1238  contract text{... */\n  callvalue\n  dup1\n  iszero\n  tag_3\n  jumpi\n  0x00\n  dup1\n  revert\ntag_3:\n  pop\n  jump(tag_4)\ntag_2:\n  dup3\n  dup1\n  sload\n  dup3\n  dup3\n  sstore\n  swap1\n  0x00\n  mstore\n  keccak256(0x00, 0x20)\n  swap1\n  dup2\n  add\n  swap3\n  dup3\n  iszero\n  tag_5\n  jumpi\n  swap2\n  0x20\n  mul\n  dup3\n  add\ntag_6:\n  dup3\n  dup2\n  gt\n  iszero\n  tag_7\n  jumpi\n  dup3\n  mload\n  dup3\n  swap1\n  0xff\n  and\n  swap1\n  sstore\n  swap2\n  0x20\n  add\n  swap2\n  swap1\n  0x01\n  add\n  swap1\n  jump(tag_6)\ntag_7:\ntag_5:\n  pop\n  swap1\n  pop\n  tag_8\n  swap2\n  swap1\n  tag_9\n  jump\t// in\ntag_8:\n  pop\n  swap1\n  jump\t// out\ntag_9:\ntag_10:\n  dup1\n  dup3\n  gt\n  iszero\n  tag_11\n  jumpi\n  0x00\n  dup2\n  0x00\n  swap1\n  sstore\n  pop\n  0x01\n  add\n  jump(tag_10)\ntag_11:\n  pop\n  swap1\n  jump\t// out\ntag_4:\n  dataSize(sub_0)\n  dup1\n  dataOffset(sub_0)\n  0x00\n  codecopy\n  0x00\n  return\nstop\n\nsub_0: assembly {\n        /* \"Study/Location.sol\":60:1238  contract text{... */\n      mstore(0x40, 0x80)\n      callvalue\n      dup1\n      iszero\n      tag_1\n      jumpi\n      0x00\n      dup1\n      revert\n    tag_1:\n      pop\n      jumpi(tag_2, lt(calldatasize, 0x04))\n      shr(0xe0, calldataload(0x00))\n      dup1\n      0x9b1a379c\n      gt\n      tag_10\n      jumpi\n      dup1\n      0x9b1a379c\n      eq\n      tag_6\n      jumpi\n      dup1\n      0xa56dfe4a\n      eq\n      tag_7\n      jumpi\n      dup1\n      0xc5d7802e\n      eq\n      tag_8\n      jumpi\n      dup1\n      0xfebb0f7e\n      eq\n      tag_9\n      jumpi\n      jump(tag_2)\n    tag_10:\n      dup1\n      0x20028990\n      eq\n      tag_3\n      jumpi\n      dup1\n      0x2ee79ded\n      eq\n      tag_4\n      jumpi\n      dup1\n      0x6a8d1e08\n      eq\n      tag_5\n      jumpi\n    tag_2:\n      0x00\n      dup1\n      revert\n        /* \"Study/Location.sol\":758:1036  function fMemory() public view{... */\n    tag_3:\n      tag_11\n      tag_12\n      jump\t// in\n    tag_11:\n      stop\n        /* \"Study/Location.sol\":231:301  function change()public {... */\n    tag_4:\n      tag_13\n      tag_14\n      jump\t// in\n    tag_13:\n      stop\n        /* \"Study/Location.sol\":494:720  function fStorage() public returns(uint) {... */\n    tag_5:\n      tag_15\n      tag_16\n      jump\t// in\n    tag_15:\n      mload(0x40)\n      tag_17\n      swap2\n      swap1\n      tag_18\n      jump\t// in\n    tag_17:\n      mload(0x40)\n      dup1\n      swap2\n      sub\n      swap1\n      return\n        /* \"Study/Location.sol\":1044:1235  function fCalldata(uint[] calldata _x) public pure returns(uint[] calldata){... */\n    tag_6:\n      tag_19\n      0x04\n      dup1\n      calldatasize\n      sub\n      dup2\n      add\n      swap1\n      tag_20\n      swap2\n      swap1\n      tag_21\n      jump\t// in\n    tag_20:\n      tag_22\n      jump\t// in\n    tag_19:\n      mload(0x40)\n      tag_23\n      swap3\n      swap2\n      swap1\n      tag_24\n      jump\t// in\n    tag_23:\n      mload(0x40)\n      dup1\n      swap2\n      sub\n      swap1\n      return\n        /* \"Study/Location.sol\":142:155  uint public y */\n    tag_7:\n      tag_25\n      tag_26\n      jump\t// in\n    tag_25:\n      mload(0x40)\n      tag_27\n      swap2\n      swap1\n      tag_18\n      jump\t// in\n    tag_27:\n      mload(0x40)\n      dup1\n      swap2\n      sub\n      swap1\n      return\n        /* \"Study/Location.sol\":162:177  string public z */\n    tag_8:\n      tag_28\n      tag_29\n      jump\t// in\n    tag_28:\n      mload(0x40)\n      tag_30\n      swap2\n      swap1\n      tag_31\n      jump\t// in\n    tag_30:\n      mload(0x40)\n      dup1\n      swap2\n      sub\n      swap1\n      return\n        /* \"Study/Location.sol\":327:454  function bar() external pure returns(uint){... */\n    tag_9:\n      tag_32\n      tag_33\n      jump\t// in\n    tag_32:\n      mload(0x40)\n      tag_34\n      swap2\n      swap1\n      tag_18\n      jump\t// in\n    tag_34:\n      mload(0x40)\n      dup1\n      swap2\n      sub\n      swap1\n      return\n        /* \"Study/Location.sol\":758:1036  function fMemory() public view{... */\n    tag_12:\n        /* \"Study/Location.sol\":884:905  uint[] memory xMemory */\n      0x00\n        /* \"Study/Location.sol\":908:909  x */\n      dup1\n        /* \"Study/Location.sol\":884:909  uint[] memory xMemory = x */\n      dup1\n      sload\n      dup1\n      0x20\n      mul\n      0x20\n      add\n      mload(0x40)\n      swap1\n      dup2\n      add\n      0x40\n      mstore\n      dup1\n      swap3\n      swap2\n      swap1\n      dup2\n      dup2\n      mstore\n      0x20\n      add\n      dup3\n      dup1\n      sload\n      dup1\n      iszero\n      tag_36\n      jumpi\n      0x20\n      mul\n      dup3\n      add\n      swap2\n      swap1\n      0x00\n      mstore\n      keccak256(0x00, 0x20)\n      swap1\n    tag_37:\n      dup2\n      sload\n      dup2\n      mstore\n      0x20\n      add\n      swap1\n      0x01\n      add\n      swap1\n      dup1\n      dup4\n      gt\n      tag_37\n      jumpi\n    tag_36:\n      pop\n      pop\n      pop\n      pop\n      pop\n      swap1\n      pop\n        /* \"Study/Location.sol\":933:936  100 */\n      0x64\n        /* \"Study/Location.sol\":920:927  xMemory */\n      dup2\n        /* \"Study/Location.sol\":928:929  0 */\n      0x00\n        /* \"Study/Location.sol\":920:930  xMemory[0] */\n      dup2\n      mload\n      dup2\n      lt\n      tag_38\n      jumpi\n      tag_39\n      tag_40\n      jump\t// in\n    tag_39:\n    tag_38:\n      0x20\n      mul\n      0x20\n      add\n      add\n        /* \"Study/Location.sol\":920:936  xMemory[0] = 100 */\n      dup2\n      dup2\n      mstore\n      pop\n      pop\n        /* \"Study/Location.sol\":960:963  200 */\n      0xc8\n        /* \"Study/Location.sol\":947:954  xMemory */\n      dup2\n        /* \"Study/Location.sol\":955:956  1 */\n      0x01\n        /* \"Study/Location.sol\":947:957  xMemory[1] */\n      dup2\n      mload\n      dup2\n      lt\n      tag_41\n      jumpi\n      tag_42\n      tag_40\n      jump\t// in\n    tag_42:\n    tag_41:\n      0x20\n      mul\n      0x20\n      add\n      add\n        /* \"Study/Location.sol\":947:963  xMemory[1] = 200 */\n      dup2\n      dup2\n      mstore\n      pop\n      pop\n        /* \"Study/Location.sol\":974:996  uint[] memory xMemory2 */\n      0x00\n        /* \"Study/Location.sol\":999:1000  x */\n      dup1\n        /* \"Study/Location.sol\":974:1000  uint[] memory xMemory2 = x */\n      dup1\n      sload\n      dup1\n      0x20\n      mul\n      0x20\n      add\n      mload(0x40)\n      swap1\n      dup2\n      add\n      0x40\n      mstore\n      dup1\n      swap3\n      swap2\n      swap1\n      dup2\n      dup2\n      mstore\n      0x20\n      add\n      dup3\n      dup1\n      sload\n      dup1\n      iszero\n      tag_43\n      jumpi\n      0x20\n      mul\n      dup3\n      add\n      swap2\n      swap1\n      0x00\n      mstore\n      keccak256(0x00, 0x20)\n      swap1\n    tag_44:\n      dup2\n      sload\n      dup2\n      mstore\n      0x20\n      add\n      swap1\n      0x01\n      add\n      swap1\n      dup1\n      dup4\n      gt\n      tag_44\n      jumpi\n    tag_43:\n      pop\n      pop\n      pop\n      pop\n      pop\n      swap1\n      pop\n        /* \"Study/Location.sol\":1025:1028  300 */\n      0x012c\n        /* \"Study/Location.sol\":1011:1019  xMemory2 */\n      dup2\n        /* \"Study/Location.sol\":1020:1021  0 */\n      0x00\n        /* \"Study/Location.sol\":1011:1022  xMemory2[0] */\n      dup2\n      mload\n      dup2\n      lt\n      tag_45\n      jumpi\n      tag_46\n      tag_40\n      jump\t// in\n    tag_46:\n    tag_45:\n      0x20\n      mul\n      0x20\n      add\n      add\n        /* \"Study/Location.sol\":1011:1028  xMemory2[0] = 300 */\n      dup2\n      dup2\n      mstore\n      pop\n      pop\n        /* \"Study/Location.sol\":788:1036  {... */\n      pop\n      pop\n        /* \"Study/Location.sol\":758:1036  function fMemory() public view{... */\n      jump\t// out\n        /* \"Study/Location.sol\":231:301  function change()public {... */\n    tag_14:\n        /* \"Study/Location.sol\":270:271  2 */\n      0x02\n        /* \"Study/Location.sol\":266:267  y */\n      0x01\n        /* \"Study/Location.sol\":266:271  y = 2 */\n      dup2\n      swap1\n      sstore\n      pop\n        /* \"Study/Location.sol\":282:293  z = \"hello\" */\n      mload(0x40)\n      dup1\n      0x40\n      add\n      0x40\n      mstore\n      dup1\n      0x05\n      dup2\n      mstore\n      0x20\n      add\n      0x68656c6c6f000000000000000000000000000000000000000000000000000000\n      dup2\n      mstore\n      pop\n        /* \"Study/Location.sol\":282:283  z */\n      0x02\n        /* \"Study/Location.sol\":282:293  z = \"hello\" */\n      swap1\n      dup2\n      tag_48\n      swap2\n      swap1\n      tag_49\n      jump\t// in\n    tag_48:\n      pop\n        /* \"Study/Location.sol\":231:301  function change()public {... */\n      jump\t// out\n        /* \"Study/Location.sol\":494:720  function fStorage() public returns(uint) {... */\n    tag_16:\n        /* \"Study/Location.sol\":529:533  uint */\n      0x00\n        /* \"Study/Location.sol\":635:658  uint[] storage xStorage */\n      dup1\n        /* \"Study/Location.sol\":661:662  x */\n      0x00\n        /* \"Study/Location.sol\":635:662  uint[] storage xStorage = x */\n      swap1\n      pop\n        /* \"Study/Location.sol\":687:690  100 */\n      0x64\n        /* \"Study/Location.sol\":673:681  xStorage */\n      dup2\n        /* \"Study/Location.sol\":682:683  0 */\n      0x00\n        /* \"Study/Location.sol\":673:684  xStorage[0] */\n      dup2\n      sload\n      dup2\n      lt\n      tag_51\n      jumpi\n      tag_52\n      tag_40\n      jump\t// in\n    tag_52:\n    tag_51:\n      swap1\n      0x00\n      mstore\n      keccak256(0x00, 0x20)\n      add\n        /* \"Study/Location.sol\":673:690  xStorage[0] = 100 */\n      dup2\n      swap1\n      sstore\n      pop\n        /* \"Study/Location.sol\":708:709  x */\n      0x00\n        /* \"Study/Location.sol\":710:711  0 */\n      dup1\n        /* \"Study/Location.sol\":708:712  x[0] */\n      dup2\n      sload\n      dup2\n      lt\n      tag_54\n      jumpi\n      tag_55\n      tag_40\n      jump\t// in\n    tag_55:\n    tag_54:\n      swap1\n      0x00\n      mstore\n      keccak256(0x00, 0x20)\n      add\n      sload\n        /* \"Study/Location.sol\":701:712  return x[0] */\n      swap2\n      pop\n      pop\n        /* \"Study/Location.sol\":494:720  function fStorage() public returns(uint) {... */\n      swap1\n      jump\t// out\n        /* \"Study/Location.sol\":1044:1235  function fCalldata(uint[] calldata _x) public pure returns(uint[] calldata){... */\n    tag_22:\n        /* \"Study/Location.sol\":1103:1118  uint[] calldata */\n      calldatasize\n      0x00\n        /* \"Study/Location.sol\":1224:1226  _x */\n      dup4\n      dup4\n        /* \"Study/Location.sol\":1217:1227  return(_x) */\n      swap2\n      pop\n      swap2\n      pop\n        /* \"Study/Location.sol\":1044:1235  function fCalldata(uint[] calldata _x) public pure returns(uint[] calldata){... */\n      swap3\n      pop\n      swap3\n      swap1\n      pop\n      jump\t// out\n        /* \"Study/Location.sol\":142:155  uint public y */\n    tag_26:\n      sload(0x01)\n      dup2\n      jump\t// out\n        /* \"Study/Location.sol\":162:177  string public z */\n    tag_29:\n      0x02\n      dup1\n      sload\n      tag_58\n      swap1\n      tag_59\n      jump\t// in\n    tag_58:\n      dup1\n      0x1f\n      add\n      0x20\n      dup1\n      swap2\n      div\n      mul\n      0x20\n      add\n      mload(0x40)\n      swap1\n      dup2\n      add\n      0x40\n      mstore\n      dup1\n      swap3\n      swap2\n      swap1\n      dup2\n      dup2\n      mstore\n      0x20\n      add\n      dup3\n      dup1\n      sload\n      tag_60\n      swap1\n      tag_59\n      jump\t// in\n    tag_60:\n      dup1\n      iszero\n      tag_61\n      jumpi\n      dup1\n      0x1f\n      lt\n      tag_62\n      jumpi\n      0x0100\n      dup1\n      dup4\n      sload\n      div\n      mul\n      dup4\n      mstore\n      swap2\n      0x20\n      add\n      swap2\n      jump(tag_61)\n    tag_62:\n      dup3\n      add\n      swap2\n      swap1\n      0x00\n      mstore\n      keccak256(0x00, 0x20)\n      swap1\n    tag_63:\n      dup2\n      sload\n      dup2\n      mstore\n      swap1\n      0x01\n      add\n      swap1\n      0x20\n      add\n      dup1\n      dup4\n      gt\n      tag_63\n      jumpi\n      dup3\n      swap1\n      sub\n      0x1f\n      and\n      dup3\n      add\n      swap2\n    tag_61:\n      pop\n      pop\n      pop\n      pop\n      pop\n      dup2\n      jump\t// out\n        /* \"Study/Location.sol\":327:454  function bar() external pure returns(uint){... */\n    tag_33:\n        /* \"Study/Location.sol\":364:368  uint */\n      0x00\n        /* \"Study/Location.sol\":376:383  uint xx */\n      dup1\n        /* \"Study/Location.sol\":386:387  1 */\n      0x01\n        /* \"Study/Location.sol\":376:387  uint xx = 1 */\n      swap1\n      pop\n        /* \"Study/Location.sol\":394:401  uint yy */\n      0x00\n        /* \"Study/Location.sol\":404:405  3 */\n      0x03\n        /* \"Study/Location.sol\":394:405  uint yy = 3 */\n      swap1\n      pop\n        /* \"Study/Location.sol\":412:419  uint zz */\n      0x00\n        /* \"Study/Location.sol\":427:429  yy */\n      dup2\n        /* \"Study/Location.sol\":422:424  xx */\n      dup4\n        /* \"Study/Location.sol\":422:429  xx + yy */\n      tag_65\n      swap2\n      swap1\n      tag_66\n      jump\t// in\n    tag_65:\n        /* \"Study/Location.sol\":412:429  uint zz = xx + yy */\n      swap1\n      pop\n        /* \"Study/Location.sol\":443:445  zz */\n      dup1\n        /* \"Study/Location.sol\":436:446  return(zz) */\n      swap4\n      pop\n      pop\n      pop\n      pop\n        /* \"Study/Location.sol\":327:454  function bar() external pure returns(uint){... */\n      swap1\n      jump\t// out\n        /* \"#utility.yul\":7:84   */\n    tag_67:\n        /* \"#utility.yul\":44:51   */\n      0x00\n        /* \"#utility.yul\":73:78   */\n      dup2\n        /* \"#utility.yul\":62:78   */\n      swap1\n      pop\n        /* \"#utility.yul\":7:84   */\n      swap2\n      swap1\n      pop\n      jump\t// out\n        /* \"#utility.yul\":90:208   */\n    tag_68:\n        /* \"#utility.yul\":177:201   */\n      tag_106\n        /* \"#utility.yul\":195:200   */\n      dup2\n        /* \"#utility.yul\":177:201   */\n      tag_67\n      jump\t// in\n    tag_106:\n        /* \"#utility.yul\":172:175   */\n      dup3\n        /* \"#utility.yul\":165:202   */\n      mstore\n        /* \"#utility.yul\":90:208   */\n      pop\n      pop\n      jump\t// out\n        /* \"#utility.yul\":214:436   */\n    tag_18:\n        /* \"#utility.yul\":307:311   */\n      0x00\n        /* \"#utility.yul\":345:347   */\n      0x20\n        /* \"#utility.yul\":334:343   */\n      dup3\n        /* \"#utility.yul\":330:348   */\n      add\n        /* \"#utility.yul\":322:348   */\n      swap1\n      pop\n        /* \"#utility.yul\":358:429   */\n      tag_108\n        /* \"#utility.yul\":426:427   */\n      0x00\n        /* \"#utility.yul\":415:424   */\n      dup4\n        /* \"#utility.yul\":411:428   */\n      add\n        /* \"#utility.yul\":402:408   */\n      dup5\n        /* \"#utility.yul\":358:429   */\n      tag_68\n      jump\t// in\n    tag_108:\n        /* \"#utility.yul\":214:436   */\n      swap3\n      swap2\n      pop\n      pop\n      jump\t// out\n        /* \"#utility.yul\":523:640   */\n    tag_70:\n        /* \"#utility.yul\":632:633   */\n      0x00\n        /* \"#utility.yul\":629:630   */\n      dup1\n        /* \"#utility.yul\":622:634   */\n      revert\n        /* \"#utility.yul\":646:763   */\n    tag_71:\n        /* \"#utility.yul\":755:756   */\n      0x00\n        /* \"#utility.yul\":752:753   */\n      dup1\n        /* \"#utility.yul\":745:757   */\n      revert\n        /* \"#utility.yul\":769:886   */\n    tag_72:\n        /* \"#utility.yul\":878:879   */\n      0x00\n        /* \"#utility.yul\":875:876   */\n      dup1\n        /* \"#utility.yul\":868:880   */\n      revert\n        /* \"#utility.yul\":892:1009   */\n    tag_73:\n        /* \"#utility.yul\":1001:1002   */\n      0x00\n        /* \"#utility.yul\":998:999   */\n      dup1\n        /* \"#utility.yul\":991:1003   */\n      revert\n        /* \"#utility.yul\":1015:1132   */\n    tag_74:\n        /* \"#utility.yul\":1124:1125   */\n      0x00\n        /* \"#utility.yul\":1121:1122   */\n      dup1\n        /* \"#utility.yul\":1114:1126   */\n      revert\n        /* \"#utility.yul\":1155:1723   */\n    tag_75:\n        /* \"#utility.yul\":1228:1236   */\n      0x00\n        /* \"#utility.yul\":1238:1244   */\n      dup1\n        /* \"#utility.yul\":1288:1291   */\n      dup4\n        /* \"#utility.yul\":1281:1285   */\n      0x1f\n        /* \"#utility.yul\":1273:1279   */\n      dup5\n        /* \"#utility.yul\":1269:1286   */\n      add\n        /* \"#utility.yul\":1265:1292   */\n      slt\n        /* \"#utility.yul\":1255:1377   */\n      tag_116\n      jumpi\n        /* \"#utility.yul\":1296:1375   */\n      tag_117\n      tag_72\n      jump\t// in\n    tag_117:\n        /* \"#utility.yul\":1255:1377   */\n    tag_116:\n        /* \"#utility.yul\":1409:1415   */\n      dup3\n        /* \"#utility.yul\":1396:1416   */\n      calldataload\n        /* \"#utility.yul\":1386:1416   */\n      swap1\n      pop\n        /* \"#utility.yul\":1439:1457   */\n      0xffffffffffffffff\n        /* \"#utility.yul\":1431:1437   */\n      dup2\n        /* \"#utility.yul\":1428:1458   */\n      gt\n        /* \"#utility.yul\":1425:1542   */\n      iszero\n      tag_118\n      jumpi\n        /* \"#utility.yul\":1461:1540   */\n      tag_119\n      tag_73\n      jump\t// in\n    tag_119:\n        /* \"#utility.yul\":1425:1542   */\n    tag_118:\n        /* \"#utility.yul\":1575:1579   */\n      0x20\n        /* \"#utility.yul\":1567:1573   */\n      dup4\n        /* \"#utility.yul\":1563:1580   */\n      add\n        /* \"#utility.yul\":1551:1580   */\n      swap2\n      pop\n        /* \"#utility.yul\":1629:1632   */\n      dup4\n        /* \"#utility.yul\":1621:1625   */\n      0x20\n        /* \"#utility.yul\":1613:1619   */\n      dup3\n        /* \"#utility.yul\":1609:1626   */\n      mul\n        /* \"#utility.yul\":1599:1607   */\n      dup4\n        /* \"#utility.yul\":1595:1627   */\n      add\n        /* \"#utility.yul\":1592:1633   */\n      gt\n        /* \"#utility.yul\":1589:1717   */\n      iszero\n      tag_120\n      jumpi\n        /* \"#utility.yul\":1636:1715   */\n      tag_121\n      tag_74\n      jump\t// in\n    tag_121:\n        /* \"#utility.yul\":1589:1717   */\n    tag_120:\n        /* \"#utility.yul\":1155:1723   */\n      swap3\n      pop\n      swap3\n      swap1\n      pop\n      jump\t// out\n        /* \"#utility.yul\":1729:2288   */\n    tag_21:\n        /* \"#utility.yul\":1815:1821   */\n      0x00\n        /* \"#utility.yul\":1823:1829   */\n      dup1\n        /* \"#utility.yul\":1872:1874   */\n      0x20\n        /* \"#utility.yul\":1860:1869   */\n      dup4\n        /* \"#utility.yul\":1851:1858   */\n      dup6\n        /* \"#utility.yul\":1847:1870   */\n      sub\n        /* \"#utility.yul\":1843:1875   */\n      slt\n        /* \"#utility.yul\":1840:1959   */\n      iszero\n      tag_123\n      jumpi\n        /* \"#utility.yul\":1878:1957   */\n      tag_124\n      tag_70\n      jump\t// in\n    tag_124:\n        /* \"#utility.yul\":1840:1959   */\n    tag_123:\n        /* \"#utility.yul\":2026:2027   */\n      0x00\n        /* \"#utility.yul\":2015:2024   */\n      dup4\n        /* \"#utility.yul\":2011:2028   */\n      add\n        /* \"#utility.yul\":1998:2029   */\n      calldataload\n        /* \"#utility.yul\":2056:2074   */\n      0xffffffffffffffff\n        /* \"#utility.yul\":2048:2054   */\n      dup2\n        /* \"#utility.yul\":2045:2075   */\n      gt\n        /* \"#utility.yul\":2042:2159   */\n      iszero\n      tag_125\n      jumpi\n        /* \"#utility.yul\":2078:2157   */\n      tag_126\n      tag_71\n      jump\t// in\n    tag_126:\n        /* \"#utility.yul\":2042:2159   */\n    tag_125:\n        /* \"#utility.yul\":2191:2271   */\n      tag_127\n        /* \"#utility.yul\":2263:2270   */\n      dup6\n        /* \"#utility.yul\":2254:2260   */\n      dup3\n        /* \"#utility.yul\":2243:2252   */\n      dup7\n        /* \"#utility.yul\":2239:2261   */\n      add\n        /* \"#utility.yul\":2191:2271   */\n      tag_75\n      jump\t// in\n    tag_127:\n        /* \"#utility.yul\":2173:2271   */\n      swap3\n      pop\n      swap3\n      pop\n        /* \"#utility.yul\":1969:2281   */\n      pop\n        /* \"#utility.yul\":1729:2288   */\n      swap3\n      pop\n      swap3\n      swap1\n      pop\n      jump\t// out\n        /* \"#utility.yul\":2294:2478   */\n    tag_76:\n        /* \"#utility.yul\":2393:2404   */\n      0x00\n        /* \"#utility.yul\":2427:2433   */\n      dup3\n        /* \"#utility.yul\":2422:2425   */\n      dup3\n        /* \"#utility.yul\":2415:2434   */\n      mstore\n        /* \"#utility.yul\":2467:2471   */\n      0x20\n        /* \"#utility.yul\":2462:2465   */\n      dup3\n        /* \"#utility.yul\":2458:2472   */\n      add\n        /* \"#utility.yul\":2443:2472   */\n      swap1\n      pop\n        /* \"#utility.yul\":2294:2478   */\n      swap3\n      swap2\n      pop\n      pop\n      jump\t// out\n        /* \"#utility.yul\":2484:2601   */\n    tag_77:\n        /* \"#utility.yul\":2593:2594   */\n      0x00\n        /* \"#utility.yul\":2590:2591   */\n      dup1\n        /* \"#utility.yul\":2583:2595   */\n      revert\n        /* \"#utility.yul\":2607:2705   */\n    tag_78:\n        /* \"#utility.yul\":2691:2697   */\n      dup3\n        /* \"#utility.yul\":2686:2689   */\n      dup2\n        /* \"#utility.yul\":2681:2684   */\n      dup4\n        /* \"#utility.yul\":2668:2698   */\n      calldatacopy\n        /* \"#utility.yul\":2607:2705   */\n      pop\n      pop\n      pop\n      jump\t// out\n        /* \"#utility.yul\":2741:3278   */\n    tag_79:\n        /* \"#utility.yul\":2869:2872   */\n      0x00\n        /* \"#utility.yul\":2890:2976   */\n      tag_132\n        /* \"#utility.yul\":2969:2975   */\n      dup4\n        /* \"#utility.yul\":2964:2967   */\n      dup6\n        /* \"#utility.yul\":2890:2976   */\n      tag_76\n      jump\t// in\n    tag_132:\n        /* \"#utility.yul\":2883:2976   */\n      swap4\n      pop\n        /* \"#utility.yul\":3000:3066   */\n      0x07ffffffffffffffffffffffffffffffffffffffffffffffffffffffffffffff\n        /* \"#utility.yul\":2992:2998   */\n      dup4\n        /* \"#utility.yul\":2989:3067   */\n      gt\n        /* \"#utility.yul\":2986:3151   */\n      iszero\n      tag_133\n      jumpi\n        /* \"#utility.yul\":3070:3149   */\n      tag_134\n      tag_77\n      jump\t// in\n    tag_134:\n        /* \"#utility.yul\":2986:3151   */\n    tag_133:\n        /* \"#utility.yul\":3182:3186   */\n      0x20\n        /* \"#utility.yul\":3174:3180   */\n      dup4\n        /* \"#utility.yul\":3170:3187   */\n      mul\n        /* \"#utility.yul\":3160:3187   */\n      swap3\n      pop\n        /* \"#utility.yul\":3197:3240   */\n      tag_135\n        /* \"#utility.yul\":3233:3239   */\n      dup4\n        /* \"#utility.yul\":3228:3231   */\n      dup6\n        /* \"#utility.yul\":3221:3226   */\n      dup5\n        /* \"#utility.yul\":3197:3240   */\n      tag_78\n      jump\t// in\n    tag_135:\n        /* \"#utility.yul\":3265:3271   */\n      dup3\n        /* \"#utility.yul\":3260:3263   */\n      dup5\n        /* \"#utility.yul\":3256:3272   */\n      add\n        /* \"#utility.yul\":3249:3272   */\n      swap1\n      pop\n        /* \"#utility.yul\":2741:3278   */\n      swap4\n      swap3\n      pop\n      pop\n      pop\n      jump\t// out\n        /* \"#utility.yul\":3284:3677   */\n    tag_24:\n        /* \"#utility.yul\":3437:3441   */\n      0x00\n        /* \"#utility.yul\":3475:3477   */\n      0x20\n        /* \"#utility.yul\":3464:3473   */\n      dup3\n        /* \"#utility.yul\":3460:3478   */\n      add\n        /* \"#utility.yul\":3452:3478   */\n      swap1\n      pop\n        /* \"#utility.yul\":3524:3533   */\n      dup2\n        /* \"#utility.yul\":3518:3522   */\n      dup2\n        /* \"#utility.yul\":3514:3534   */\n      sub\n        /* \"#utility.yul\":3510:3511   */\n      0x00\n        /* \"#utility.yul\":3499:3508   */\n      dup4\n        /* \"#utility.yul\":3495:3512   */\n      add\n        /* \"#utility.yul\":3488:3535   */\n      mstore\n        /* \"#utility.yul\":3552:3670   */\n      tag_137\n        /* \"#utility.yul\":3665:3669   */\n      dup2\n        /* \"#utility.yul\":3656:3662   */\n      dup5\n        /* \"#utility.yul\":3648:3654   */\n      dup7\n        /* \"#utility.yul\":3552:3670   */\n      tag_79\n      jump\t// in\n    tag_137:\n        /* \"#utility.yul\":3544:3670   */\n      swap1\n      pop\n        /* \"#utility.yul\":3284:3677   */\n      swap4\n      swap3\n      pop\n      pop\n      pop\n      jump\t// out\n        /* \"#utility.yul\":3683:3782   */\n    tag_80:\n        /* \"#utility.yul\":3735:3741   */\n      0x00\n        /* \"#utility.yul\":3769:3774   */\n      dup2\n        /* \"#utility.yul\":3763:3775   */\n      mload\n        /* \"#utility.yul\":3753:3775   */\n      swap1\n      pop\n        /* \"#utility.yul\":3683:3782   */\n      swap2\n      swap1\n      pop\n      jump\t// out\n        /* \"#utility.yul\":3788:3957   */\n    tag_81:\n        /* \"#utility.yul\":3872:3883   */\n      0x00\n        /* \"#utility.yul\":3906:3912   */\n      dup3\n        /* \"#utility.yul\":3901:3904   */\n      dup3\n        /* \"#utility.yul\":3894:3913   */\n      mstore\n        /* \"#utility.yul\":3946:3950   */\n      0x20\n        /* \"#utility.yul\":3941:3944   */\n      dup3\n        /* \"#utility.yul\":3937:3951   */\n      add\n        /* \"#utility.yul\":3922:3951   */\n      swap1\n      pop\n        /* \"#utility.yul\":3788:3957   */\n      swap3\n      swap2\n      pop\n      pop\n      jump\t// out\n        /* \"#utility.yul\":3963:4209   */\n    tag_82:\n        /* \"#utility.yul\":4044:4045   */\n      0x00\n        /* \"#utility.yul\":4054:4167   */\n    tag_141:\n        /* \"#utility.yul\":4068:4074   */\n      dup4\n        /* \"#utility.yul\":4065:4066   */\n      dup2\n        /* \"#utility.yul\":4062:4075   */\n      lt\n        /* \"#utility.yul\":4054:4167   */\n      iszero\n      tag_143\n      jumpi\n        /* \"#utility.yul\":4153:4154   */\n      dup1\n        /* \"#utility.yul\":4148:4151   */\n      dup3\n        /* \"#utility.yul\":4144:4155   */\n      add\n        /* \"#utility.yul\":4138:4156   */\n      mload\n        /* \"#utility.yul\":4134:4135   */\n      dup2\n        /* \"#utility.yul\":4129:4132   */\n      dup5\n        /* \"#utility.yul\":4125:4136   */\n      add\n        /* \"#utility.yul\":4118:4157   */\n      mstore\n        /* \"#utility.yul\":4090:4092   */\n      0x20\n        /* \"#utility.yul\":4087:4088   */\n      dup2\n        /* \"#utility.yul\":4083:4093   */\n      add\n        /* \"#utility.yul\":4078:4093   */\n      swap1\n      pop\n        /* \"#utility.yul\":4054:4167   */\n      jump(tag_141)\n    tag_143:\n        /* \"#utility.yul\":4201:4202   */\n      0x00\n        /* \"#utility.yul\":4192:4198   */\n      dup5\n        /* \"#utility.yul\":4187:4190   */\n      dup5\n        /* \"#utility.yul\":4183:4199   */\n      add\n        /* \"#utility.yul\":4176:4203   */\n      mstore\n        /* \"#utility.yul\":4025:4209   */\n      pop\n        /* \"#utility.yul\":3963:4209   */\n      pop\n      pop\n      pop\n      jump\t// out\n        /* \"#utility.yul\":4215:4317   */\n    tag_83:\n        /* \"#utility.yul\":4256:4262   */\n      0x00\n        /* \"#utility.yul\":4307:4309   */\n      0x1f\n        /* \"#utility.yul\":4303:4310   */\n      not\n        /* \"#utility.yul\":4298:4300   */\n      0x1f\n        /* \"#utility.yul\":4291:4296   */\n      dup4\n        /* \"#utility.yul\":4287:4301   */\n      add\n        /* \"#utility.yul\":4283:4311   */\n      and\n        /* \"#utility.yul\":4273:4311   */\n      swap1\n      pop\n        /* \"#utility.yul\":4215:4317   */\n      swap2\n      swap1\n      pop\n      jump\t// out\n        /* \"#utility.yul\":4323:4700   */\n    tag_84:\n        /* \"#utility.yul\":4411:4414   */\n      0x00\n        /* \"#utility.yul\":4439:4478   */\n      tag_146\n        /* \"#utility.yul\":4472:4477   */\n      dup3\n        /* \"#utility.yul\":4439:4478   */\n      tag_80\n      jump\t// in\n    tag_146:\n        /* \"#utility.yul\":4494:4565   */\n      tag_147\n        /* \"#utility.yul\":4558:4564   */\n      dup2\n        /* \"#utility.yul\":4553:4556   */\n      dup6\n        /* \"#utility.yul\":4494:4565   */\n      tag_81\n      jump\t// in\n    tag_147:\n        /* \"#utility.yul\":4487:4565   */\n      swap4\n      pop\n        /* \"#utility.yul\":4574:4639   */\n      tag_148\n        /* \"#utility.yul\":4632:4638   */\n      dup2\n        /* \"#utility.yul\":4627:4630   */\n      dup6\n        /* \"#utility.yul\":4620:4624   */\n      0x20\n        /* \"#utility.yul\":4613:4618   */\n      dup7\n        /* \"#utility.yul\":4609:4625   */\n      add\n        /* \"#utility.yul\":4574:4639   */\n      tag_82\n      jump\t// in\n    tag_148:\n        /* \"#utility.yul\":4664:4693   */\n      tag_149\n        /* \"#utility.yul\":4686:4692   */\n      dup2\n        /* \"#utility.yul\":4664:4693   */\n      tag_83\n      jump\t// in\n    tag_149:\n        /* \"#utility.yul\":4659:4662   */\n      dup5\n        /* \"#utility.yul\":4655:4694   */\n      add\n        /* \"#utility.yul\":4648:4694   */\n      swap2\n      pop\n        /* \"#utility.yul\":4415:4700   */\n      pop\n        /* \"#utility.yul\":4323:4700   */\n      swap3\n      swap2\n      pop\n      pop\n      jump\t// out\n        /* \"#utility.yul\":4706:5019   */\n    tag_31:\n        /* \"#utility.yul\":4819:4823   */\n      0x00\n        /* \"#utility.yul\":4857:4859   */\n      0x20\n        /* \"#utility.yul\":4846:4855   */\n      dup3\n        /* \"#utility.yul\":4842:4860   */\n      add\n        /* \"#utility.yul\":4834:4860   */\n      swap1\n      pop\n        /* \"#utility.yul\":4906:4915   */\n      dup2\n        /* \"#utility.yul\":4900:4904   */\n      dup2\n        /* \"#utility.yul\":4896:4916   */\n      sub\n        /* \"#utility.yul\":4892:4893   */\n      0x00\n        /* \"#utility.yul\":4881:4890   */\n      dup4\n        /* \"#utility.yul\":4877:4894   */\n      add\n        /* \"#utility.yul\":4870:4917   */\n      mstore\n        /* \"#utility.yul\":4934:5012   */\n      tag_151\n        /* \"#utility.yul\":5007:5011   */\n      dup2\n        /* \"#utility.yul\":4998:5004   */\n      dup5\n        /* \"#utility.yul\":4934:5012   */\n      tag_84\n      jump\t// in\n    tag_151:\n        /* \"#utility.yul\":4926:5012   */\n      swap1\n      pop\n        /* \"#utility.yul\":4706:5019   */\n      swap3\n      swap2\n      pop\n      pop\n      jump\t// out\n        /* \"#utility.yul\":5025:5205   */\n    tag_40:\n        /* \"#utility.yul\":5073:5150   */\n      0x4e487b7100000000000000000000000000000000000000000000000000000000\n        /* \"#utility.yul\":5070:5071   */\n      0x00\n        /* \"#utility.yul\":5063:5151   */\n      mstore\n        /* \"#utility.yul\":5170:5174   */\n      0x32\n        /* \"#utility.yul\":5167:5168   */\n      0x04\n        /* \"#utility.yul\":5160:5175   */\n      mstore\n        /* \"#utility.yul\":5194:5198   */\n      0x24\n        /* \"#utility.yul\":5191:5192   */\n      0x00\n        /* \"#utility.yul\":5184:5199   */\n      revert\n        /* \"#utility.yul\":5211:5391   */\n    tag_85:\n        /* \"#utility.yul\":5259:5336   */\n      0x4e487b7100000000000000000000000000000000000000000000000000000000\n        /* \"#utility.yul\":5256:5257   */\n      0x00\n        /* \"#utility.yul\":5249:5337   */\n      mstore\n        /* \"#utility.yul\":5356:5360   */\n      0x41\n        /* \"#utility.yul\":5353:5354   */\n      0x04\n        /* \"#utility.yul\":5346:5361   */\n      mstore\n        /* \"#utility.yul\":5380:5384   */\n      0x24\n        /* \"#utility.yul\":5377:5378   */\n      0x00\n        /* \"#utility.yul\":5370:5385   */\n      revert\n        /* \"#utility.yul\":5397:5577   */\n    tag_86:\n        /* \"#utility.yul\":5445:5522   */\n      0x4e487b7100000000000000000000000000000000000000000000000000000000\n        /* \"#utility.yul\":5442:5443   */\n      0x00\n        /* \"#utility.yul\":5435:5523   */\n      mstore\n        /* \"#utility.yul\":5542:5546   */\n      0x22\n        /* \"#utility.yul\":5539:5540   */\n      0x04\n        /* \"#utility.yul\":5532:5547   */\n      mstore\n        /* \"#utility.yul\":5566:5570   */\n      0x24\n        /* \"#utility.yul\":5563:5564   */\n      0x00\n        /* \"#utility.yul\":5556:5571   */\n      revert\n        /* \"#utility.yul\":5583:5903   */\n    tag_59:\n        /* \"#utility.yul\":5627:5633   */\n      0x00\n        /* \"#utility.yul\":5664:5665   */\n      0x02\n        /* \"#utility.yul\":5658:5662   */\n      dup3\n        /* \"#utility.yul\":5654:5666   */\n      div\n        /* \"#utility.yul\":5644:5666   */\n      swap1\n      pop\n        /* \"#utility.yul\":5711:5712   */\n      0x01\n        /* \"#utility.yul\":5705:5709   */\n      dup3\n        /* \"#utility.yul\":5701:5713   */\n      and\n        /* \"#utility.yul\":5732:5750   */\n      dup1\n        /* \"#utility.yul\":5722:5803   */\n      tag_156\n      jumpi\n        /* \"#utility.yul\":5788:5792   */\n      0x7f\n        /* \"#utility.yul\":5780:5786   */\n      dup3\n        /* \"#utility.yul\":5776:5793   */\n      and\n        /* \"#utility.yul\":5766:5793   */\n      swap2\n      pop\n        /* \"#utility.yul\":5722:5803   */\n    tag_156:\n        /* \"#utility.yul\":5850:5852   */\n      0x20\n        /* \"#utility.yul\":5842:5848   */\n      dup3\n        /* \"#utility.yul\":5839:5853   */\n      lt\n        /* \"#utility.yul\":5819:5837   */\n      dup2\n        /* \"#utility.yul\":5816:5854   */\n      sub\n        /* \"#utility.yul\":5813:5897   */\n      tag_157\n      jumpi\n        /* \"#utility.yul\":5869:5887   */\n      tag_158\n      tag_86\n      jump\t// in\n    tag_158:\n        /* \"#utility.yul\":5813:5897   */\n    tag_157:\n        /* \"#utility.yul\":5634:5903   */\n      pop\n        /* \"#utility.yul\":5583:5903   */\n      swap2\n      swap1\n      pop\n      jump\t// out\n        /* \"#utility.yul\":5909:6050   */\n    tag_87:\n        /* \"#utility.yul\":5958:5962   */\n      0x00\n        /* \"#utility.yul\":5981:5984   */\n      dup2\n        /* \"#utility.yul\":5973:5984   */\n      swap1\n      pop\n        /* \"#utility.yul\":6004:6007   */\n      dup2\n        /* \"#utility.yul\":6001:6002   */\n      0x00\n        /* \"#utility.yul\":5994:6008   */\n      mstore\n        /* \"#utility.yul\":6038:6042   */\n      0x20\n        /* \"#utility.yul\":6035:6036   */\n      0x00\n        /* \"#utility.yul\":6025:6043   */\n      keccak256\n        /* \"#utility.yul\":6017:6043   */\n      swap1\n      pop\n        /* \"#utility.yul\":5909:6050   */\n      swap2\n      swap1\n      pop\n      jump\t// out\n        /* \"#utility.yul\":6056:6149   */\n    tag_88:\n        /* \"#utility.yul\":6093:6099   */\n      0x00\n        /* \"#utility.yul\":6140:6142   */\n      0x20\n        /* \"#utility.yul\":6135:6137   */\n      0x1f\n        /* \"#utility.yul\":6128:6133   */\n      dup4\n        /* \"#utility.yul\":6124:6138   */\n      add\n        /* \"#utility.yul\":6120:6143   */\n      div\n        /* \"#utility.yul\":6110:6143   */\n      swap1\n      pop\n        /* \"#utility.yul\":6056:6149   */\n      swap2\n      swap1\n      pop\n      jump\t// out\n        /* \"#utility.yul\":6155:6262   */\n    tag_89:\n        /* \"#utility.yul\":6199:6207   */\n      0x00\n        /* \"#utility.yul\":6249:6254   */\n      dup3\n        /* \"#utility.yul\":6243:6247   */\n      dup3\n        /* \"#utility.yul\":6239:6255   */\n      shl\n        /* \"#utility.yul\":6218:6255   */\n      swap1\n      pop\n        /* \"#utility.yul\":6155:6262   */\n      swap3\n      swap2\n      pop\n      pop\n      jump\t// out\n        /* \"#utility.yul\":6268:6661   */\n    tag_90:\n        /* \"#utility.yul\":6337:6343   */\n      0x00\n        /* \"#utility.yul\":6387:6388   */\n      0x08\n        /* \"#utility.yul\":6375:6385   */\n      dup4\n        /* \"#utility.yul\":6371:6389   */\n      mul\n        /* \"#utility.yul\":6410:6507   */\n      tag_163\n        /* \"#utility.yul\":6440:6506   */\n      0xffffffffffffffffffffffffffffffffffffffffffffffffffffffffffffffff\n        /* \"#utility.yul\":6429:6438   */\n      dup3\n        /* \"#utility.yul\":6410:6507   */\n      tag_89\n      jump\t// in\n    tag_163:\n        /* \"#utility.yul\":6528:6567   */\n      tag_164\n        /* \"#utility.yul\":6558:6566   */\n      dup7\n        /* \"#utility.yul\":6547:6556   */\n      dup4\n        /* \"#utility.yul\":6528:6567   */\n      tag_89\n      jump\t// in\n    tag_164:\n        /* \"#utility.yul\":6516:6567   */\n      swap6\n      pop\n        /* \"#utility.yul\":6600:6604   */\n      dup1\n        /* \"#utility.yul\":6596:6605   */\n      not\n        /* \"#utility.yul\":6589:6594   */\n      dup5\n        /* \"#utility.yul\":6585:6606   */\n      and\n        /* \"#utility.yul\":6576:6606   */\n      swap4\n      pop\n        /* \"#utility.yul\":6649:6653   */\n      dup1\n        /* \"#utility.yul\":6639:6647   */\n      dup7\n        /* \"#utility.yul\":6635:6654   */\n      and\n        /* \"#utility.yul\":6628:6633   */\n      dup5\n        /* \"#utility.yul\":6625:6655   */\n      or\n        /* \"#utility.yul\":6615:6655   */\n      swap3\n      pop\n        /* \"#utility.yul\":6344:6661   */\n      pop\n      pop\n        /* \"#utility.yul\":6268:6661   */\n      swap4\n      swap3\n      pop\n      pop\n      pop\n      jump\t// out\n        /* \"#utility.yul\":6667:6727   */\n    tag_91:\n        /* \"#utility.yul\":6695:6698   */\n      0x00\n        /* \"#utility.yul\":6716:6721   */\n      dup2\n        /* \"#utility.yul\":6709:6721   */\n      swap1\n      pop\n        /* \"#utility.yul\":6667:6727   */\n      swap2\n      swap1\n      pop\n      jump\t// out\n        /* \"#utility.yul\":6733:6875   */\n    tag_92:\n        /* \"#utility.yul\":6783:6792   */\n      0x00\n        /* \"#utility.yul\":6816:6869   */\n      tag_167\n        /* \"#utility.yul\":6834:6868   */\n      tag_168\n        /* \"#utility.yul\":6843:6867   */\n      tag_169\n        /* \"#utility.yul\":6861:6866   */\n      dup5\n        /* \"#utility.yul\":6843:6867   */\n      tag_67\n      jump\t// in\n    tag_169:\n        /* \"#utility.yul\":6834:6868   */\n      tag_91\n      jump\t// in\n    tag_168:\n        /* \"#utility.yul\":6816:6869   */\n      tag_67\n      jump\t// in\n    tag_167:\n        /* \"#utility.yul\":6803:6869   */\n      swap1\n      pop\n        /* \"#utility.yul\":6733:6875   */\n      swap2\n      swap1\n      pop\n      jump\t// out\n        /* \"#utility.yul\":6881:6956   */\n    tag_93:\n        /* \"#utility.yul\":6924:6927   */\n      0x00\n        /* \"#utility.yul\":6945:6950   */\n      dup2\n        /* \"#utility.yul\":6938:6950   */\n      swap1\n      pop\n        /* \"#utility.yul\":6881:6956   */\n      swap2\n      swap1\n      pop\n      jump\t// out\n        /* \"#utility.yul\":6962:7231   */\n    tag_94:\n        /* \"#utility.yul\":7072:7111   */\n      tag_172\n        /* \"#utility.yul\":7103:7110   */\n      dup4\n        /* \"#utility.yul\":7072:7111   */\n      tag_92\n      jump\t// in\n    tag_172:\n        /* \"#utility.yul\":7133:7224   */\n      tag_173\n        /* \"#utility.yul\":7182:7223   */\n      tag_174\n        /* \"#utility.yul\":7206:7222   */\n      dup3\n        /* \"#utility.yul\":7182:7223   */\n      tag_93\n      jump\t// in\n    tag_174:\n        /* \"#utility.yul\":7174:7180   */\n      dup5\n        /* \"#utility.yul\":7167:7171   */\n      dup5\n        /* \"#utility.yul\":7161:7172   */\n      sload\n        /* \"#utility.yul\":7133:7224   */\n      tag_90\n      jump\t// in\n    tag_173:\n        /* \"#utility.yul\":7127:7131   */\n      dup3\n        /* \"#utility.yul\":7120:7225   */\n      sstore\n        /* \"#utility.yul\":7038:7231   */\n      pop\n        /* \"#utility.yul\":6962:7231   */\n      pop\n      pop\n      pop\n      jump\t// out\n        /* \"#utility.yul\":7237:7310   */\n    tag_95:\n        /* \"#utility.yul\":7282:7285   */\n      0x00\n        /* \"#utility.yul\":7237:7310   */\n      swap1\n      jump\t// out\n        /* \"#utility.yul\":7316:7505   */\n    tag_96:\n        /* \"#utility.yul\":7393:7425   */\n      tag_177\n      tag_95\n      jump\t// in\n    tag_177:\n        /* \"#utility.yul\":7434:7499   */\n      tag_178\n        /* \"#utility.yul\":7492:7498   */\n      dup2\n        /* \"#utility.yul\":7484:7490   */\n      dup5\n        /* \"#utility.yul\":7478:7482   */\n      dup5\n        /* \"#utility.yul\":7434:7499   */\n      tag_94\n      jump\t// in\n    tag_178:\n        /* \"#utility.yul\":7369:7505   */\n      pop\n        /* \"#utility.yul\":7316:7505   */\n      pop\n      pop\n      jump\t// out\n        /* \"#utility.yul\":7511:7697   */\n    tag_97:\n        /* \"#utility.yul\":7571:7691   */\n    tag_180:\n        /* \"#utility.yul\":7588:7591   */\n      dup2\n        /* \"#utility.yul\":7581:7586   */\n      dup2\n        /* \"#utility.yul\":7578:7592   */\n      lt\n        /* \"#utility.yul\":7571:7691   */\n      iszero\n      tag_182\n      jumpi\n        /* \"#utility.yul\":7642:7681   */\n      tag_183\n        /* \"#utility.yul\":7679:7680   */\n      0x00\n        /* \"#utility.yul\":7672:7677   */\n      dup3\n        /* \"#utility.yul\":7642:7681   */\n      tag_96\n      jump\t// in\n    tag_183:\n        /* \"#utility.yul\":7615:7616   */\n      0x01\n        /* \"#utility.yul\":7608:7613   */\n      dup2\n        /* \"#utility.yul\":7604:7617   */\n      add\n        /* \"#utility.yul\":7595:7617   */\n      swap1\n      pop\n        /* \"#utility.yul\":7571:7691   */\n      jump(tag_180)\n    tag_182:\n        /* \"#utility.yul\":7511:7697   */\n      pop\n      pop\n      jump\t// out\n        /* \"#utility.yul\":7703:8246   */\n    tag_98:\n        /* \"#utility.yul\":7804:7806   */\n      0x1f\n        /* \"#utility.yul\":7799:7802   */\n      dup3\n        /* \"#utility.yul\":7796:7807   */\n      gt\n        /* \"#utility.yul\":7793:8239   */\n      iszero\n      tag_185\n      jumpi\n        /* \"#utility.yul\":7838:7876   */\n      tag_186\n        /* \"#utility.yul\":7870:7875   */\n      dup2\n        /* \"#utility.yul\":7838:7876   */\n      tag_87\n      jump\t// in\n    tag_186:\n        /* \"#utility.yul\":7922:7951   */\n      tag_187\n        /* \"#utility.yul\":7940:7950   */\n      dup5\n        /* \"#utility.yul\":7922:7951   */\n      tag_88\n      jump\t// in\n    tag_187:\n        /* \"#utility.yul\":7912:7920   */\n      dup2\n        /* \"#utility.yul\":7908:7952   */\n      add\n        /* \"#utility.yul\":8105:8107   */\n      0x20\n        /* \"#utility.yul\":8093:8103   */\n      dup6\n        /* \"#utility.yul\":8090:8108   */\n      lt\n        /* \"#utility.yul\":8087:8136   */\n      iszero\n      tag_188\n      jumpi\n        /* \"#utility.yul\":8126:8134   */\n      dup2\n        /* \"#utility.yul\":8111:8134   */\n      swap1\n      pop\n        /* \"#utility.yul\":8087:8136   */\n    tag_188:\n        /* \"#utility.yul\":8149:8229   */\n      tag_189\n        /* \"#utility.yul\":8205:8227   */\n      tag_190\n        /* \"#utility.yul\":8223:8226   */\n      dup6\n        /* \"#utility.yul\":8205:8227   */\n      tag_88\n      jump\t// in\n    tag_190:\n        /* \"#utility.yul\":8195:8203   */\n      dup4\n        /* \"#utility.yul\":8191:8228   */\n      add\n        /* \"#utility.yul\":8178:8189   */\n      dup3\n        /* \"#utility.yul\":8149:8229   */\n      tag_97\n      jump\t// in\n    tag_189:\n        /* \"#utility.yul\":7808:8239   */\n      pop\n      pop\n        /* \"#utility.yul\":7793:8239   */\n    tag_185:\n        /* \"#utility.yul\":7703:8246   */\n      pop\n      pop\n      pop\n      jump\t// out\n        /* \"#utility.yul\":8252:8369   */\n    tag_99:\n        /* \"#utility.yul\":8306:8314   */\n      0x00\n        /* \"#utility.yul\":8356:8361   */\n      dup3\n        /* \"#utility.yul\":8350:8354   */\n      dup3\n        /* \"#utility.yul\":8346:8362   */\n      shr\n        /* \"#utility.yul\":8325:8362   */\n      swap1\n      pop\n        /* \"#utility.yul\":8252:8369   */\n      swap3\n      swap2\n      pop\n      pop\n      jump\t// out\n        /* \"#utility.yul\":8375:8544   */\n    tag_100:\n        /* \"#utility.yul\":8419:8425   */\n      0x00\n        /* \"#utility.yul\":8452:8503   */\n      tag_193\n        /* \"#utility.yul\":8500:8501   */\n      0x00\n        /* \"#utility.yul\":8496:8502   */\n      not\n        /* \"#utility.yul\":8488:8493   */\n      dup5\n        /* \"#utility.yul\":8485:8486   */\n      0x08\n        /* \"#utility.yul\":8481:8494   */\n      mul\n        /* \"#utility.yul\":8452:8503   */\n      tag_99\n      jump\t// in\n    tag_193:\n        /* \"#utility.yul\":8448:8504   */\n      not\n        /* \"#utility.yul\":8533:8537   */\n      dup1\n        /* \"#utility.yul\":8527:8531   */\n      dup4\n        /* \"#utility.yul\":8523:8538   */\n      and\n        /* \"#utility.yul\":8513:8538   */\n      swap2\n      pop\n        /* \"#utility.yul\":8426:8544   */\n      pop\n        /* \"#utility.yul\":8375:8544   */\n      swap3\n      swap2\n      pop\n      pop\n      jump\t// out\n        /* \"#utility.yul\":8549:8844   */\n    tag_101:\n        /* \"#utility.yul\":8625:8629   */\n      0x00\n        /* \"#utility.yul\":8771:8800   */\n      tag_195\n        /* \"#utility.yul\":8796:8799   */\n      dup4\n        /* \"#utility.yul\":8790:8794   */\n      dup4\n        /* \"#utility.yul\":8771:8800   */\n      tag_100\n      jump\t// in\n    tag_195:\n        /* \"#utility.yul\":8763:8800   */\n      swap2\n      pop\n        /* \"#utility.yul\":8833:8836   */\n      dup3\n        /* \"#utility.yul\":8830:8831   */\n      0x02\n        /* \"#utility.yul\":8826:8837   */\n      mul\n        /* \"#utility.yul\":8820:8824   */\n      dup3\n        /* \"#utility.yul\":8817:8838   */\n      or\n        /* \"#utility.yul\":8809:8838   */\n      swap1\n      pop\n        /* \"#utility.yul\":8549:8844   */\n      swap3\n      swap2\n      pop\n      pop\n      jump\t// out\n        /* \"#utility.yul\":8849:10244   */\n    tag_49:\n        /* \"#utility.yul\":8966:9003   */\n      tag_197\n        /* \"#utility.yul\":8999:9002   */\n      dup3\n        /* \"#utility.yul\":8966:9003   */\n      tag_80\n      jump\t// in\n    tag_197:\n        /* \"#utility.yul\":9068:9086   */\n      0xffffffffffffffff\n        /* \"#utility.yul\":9060:9066   */\n      dup2\n        /* \"#utility.yul\":9057:9087   */\n      gt\n        /* \"#utility.yul\":9054:9110   */\n      iszero\n      tag_198\n      jumpi\n        /* \"#utility.yul\":9090:9108   */\n      tag_199\n      tag_85\n      jump\t// in\n    tag_199:\n        /* \"#utility.yul\":9054:9110   */\n    tag_198:\n        /* \"#utility.yul\":9134:9172   */\n      tag_200\n        /* \"#utility.yul\":9166:9170   */\n      dup3\n        /* \"#utility.yul\":9160:9171   */\n      sload\n        /* \"#utility.yul\":9134:9172   */\n      tag_59\n      jump\t// in\n    tag_200:\n        /* \"#utility.yul\":9219:9286   */\n      tag_201\n        /* \"#utility.yul\":9279:9285   */\n      dup3\n        /* \"#utility.yul\":9271:9277   */\n      dup3\n        /* \"#utility.yul\":9265:9269   */\n      dup6\n        /* \"#utility.yul\":9219:9286   */\n      tag_98\n      jump\t// in\n    tag_201:\n        /* \"#utility.yul\":9313:9314   */\n      0x00\n        /* \"#utility.yul\":9337:9341   */\n      0x20\n        /* \"#utility.yul\":9324:9341   */\n      swap1\n      pop\n        /* \"#utility.yul\":9369:9371   */\n      0x1f\n        /* \"#utility.yul\":9361:9367   */\n      dup4\n        /* \"#utility.yul\":9358:9372   */\n      gt\n        /* \"#utility.yul\":9386:9387   */\n      0x01\n        /* \"#utility.yul\":9381:9999   */\n      dup2\n      eq\n      tag_203\n      jumpi\n        /* \"#utility.yul\":10043:10044   */\n      0x00\n        /* \"#utility.yul\":10060:10066   */\n      dup5\n        /* \"#utility.yul\":10057:10134   */\n      iszero\n      tag_204\n      jumpi\n        /* \"#utility.yul\":10109:10118   */\n      dup3\n        /* \"#utility.yul\":10104:10107   */\n      dup8\n        /* \"#utility.yul\":10100:10119   */\n      add\n        /* \"#utility.yul\":10094:10120   */\n      mload\n        /* \"#utility.yul\":10085:10120   */\n      swap1\n      pop\n        /* \"#utility.yul\":10057:10134   */\n    tag_204:\n        /* \"#utility.yul\":10160:10227   */\n      tag_205\n        /* \"#utility.yul\":10220:10226   */\n      dup6\n        /* \"#utility.yul\":10213:10218   */\n      dup3\n        /* \"#utility.yul\":10160:10227   */\n      tag_101\n      jump\t// in\n    tag_205:\n        /* \"#utility.yul\":10154:10158   */\n      dup7\n        /* \"#utility.yul\":10147:10228   */\n      sstore\n        /* \"#utility.yul\":10016:10238   */\n      pop\n        /* \"#utility.yul\":9351:10238   */\n      jump(tag_202)\n        /* \"#utility.yul\":9381:9999   */\n    tag_203:\n        /* \"#utility.yul\":9433:9437   */\n      0x1f\n        /* \"#utility.yul\":9429:9438   */\n      not\n        /* \"#utility.yul\":9421:9427   */\n      dup5\n        /* \"#utility.yul\":9417:9439   */\n      and\n        /* \"#utility.yul\":9467:9504   */\n      tag_206\n        /* \"#utility.yul\":9499:9503   */\n      dup7\n        /* \"#utility.yul\":9467:9504   */\n      tag_87\n      jump\t// in\n    tag_206:\n        /* \"#utility.yul\":9526:9527   */\n      0x00\n        /* \"#utility.yul\":9540:9748   */\n    tag_207:\n        /* \"#utility.yul\":9554:9561   */\n      dup3\n        /* \"#utility.yul\":9551:9552   */\n      dup2\n        /* \"#utility.yul\":9548:9562   */\n      lt\n        /* \"#utility.yul\":9540:9748   */\n      iszero\n      tag_209\n      jumpi\n        /* \"#utility.yul\":9633:9642   */\n      dup5\n        /* \"#utility.yul\":9628:9631   */\n      dup10\n        /* \"#utility.yul\":9624:9643   */\n      add\n        /* \"#utility.yul\":9618:9644   */\n      mload\n        /* \"#utility.yul\":9610:9616   */\n      dup3\n        /* \"#utility.yul\":9603:9645   */\n      sstore\n        /* \"#utility.yul\":9684:9685   */\n      0x01\n        /* \"#utility.yul\":9676:9682   */\n      dup3\n        /* \"#utility.yul\":9672:9686   */\n      add\n        /* \"#utility.yul\":9662:9686   */\n      swap2\n      pop\n        /* \"#utility.yul\":9731:9733   */\n      0x20\n        /* \"#utility.yul\":9720:9729   */\n      dup6\n        /* \"#utility.yul\":9716:9734   */\n      add\n        /* \"#utility.yul\":9703:9734   */\n      swap5\n      pop\n        /* \"#utility.yul\":9577:9581   */\n      0x20\n        /* \"#utility.yul\":9574:9575   */\n      dup2\n        /* \"#utility.yul\":9570:9582   */\n      add\n        /* \"#utility.yul\":9565:9582   */\n      swap1\n      pop\n        /* \"#utility.yul\":9540:9748   */\n      jump(tag_207)\n    tag_209:\n        /* \"#utility.yul\":9776:9782   */\n      dup7\n        /* \"#utility.yul\":9767:9774   */\n      dup4\n        /* \"#utility.yul\":9764:9783   */\n      lt\n        /* \"#utility.yul\":9761:9940   */\n      iszero\n      tag_210\n      jumpi\n        /* \"#utility.yul\":9834:9843   */\n      dup5\n        /* \"#utility.yul\":9829:9832   */\n      dup10\n        /* \"#utility.yul\":9825:9844   */\n      add\n        /* \"#utility.yul\":9819:9845   */\n      mload\n        /* \"#utility.yul\":9877:9925   */\n      tag_211\n        /* \"#utility.yul\":9919:9923   */\n      0x1f\n        /* \"#utility.yul\":9911:9917   */\n      dup10\n        /* \"#utility.yul\":9907:9924   */\n      and\n        /* \"#utility.yul\":9896:9905   */\n      dup3\n        /* \"#utility.yul\":9877:9925   */\n      tag_100\n      jump\t// in\n    tag_211:\n        /* \"#utility.yul\":9869:9875   */\n      dup4\n        /* \"#utility.yul\":9862:9926   */\n      sstore\n        /* \"#utility.yul\":9784:9940   */\n      pop\n        /* \"#utility.yul\":9761:9940   */\n    tag_210:\n        /* \"#utility.yul\":9986:9987   */\n      0x01\n        /* \"#utility.yul\":9982:9983   */\n      0x02\n        /* \"#utility.yul\":9974:9980   */\n      dup9\n        /* \"#utility.yul\":9970:9984   */\n      mul\n        /* \"#utility.yul\":9966:9988   */\n      add\n        /* \"#utility.yul\":9960:9964   */\n      dup9\n        /* \"#utility.yul\":9953:9989   */\n      sstore\n        /* \"#utility.yul\":9388:9999   */\n      pop\n      pop\n      pop\n        /* \"#utility.yul\":9351:10238   */\n    tag_202:\n      pop\n        /* \"#utility.yul\":8941:10244   */\n      pop\n      pop\n      pop\n        /* \"#utility.yul\":8849:10244   */\n      pop\n      pop\n      jump\t// out\n        /* \"#utility.yul\":10250:10430   */\n    tag_102:\n        /* \"#utility.yul\":10298:10375   */\n      0x4e487b7100000000000000000000000000000000000000000000000000000000\n        /* \"#utility.yul\":10295:10296   */\n      0x00\n        /* \"#utility.yul\":10288:10376   */\n      mstore\n        /* \"#utility.yul\":10395:10399   */\n      0x11\n        /* \"#utility.yul\":10392:10393   */\n      0x04\n        /* \"#utility.yul\":10385:10400   */\n      mstore\n        /* \"#utility.yul\":10419:10423   */\n      0x24\n        /* \"#utility.yul\":10416:10417   */\n      0x00\n        /* \"#utility.yul\":10409:10424   */\n      revert\n        /* \"#utility.yul\":10436:10627   */\n    tag_66:\n        /* \"#utility.yul\":10476:10479   */\n      0x00\n        /* \"#utility.yul\":10495:10515   */\n      tag_214\n        /* \"#utility.yul\":10513:10514   */\n      dup3\n        /* \"#utility.yul\":10495:10515   */\n      tag_67\n      jump\t// in\n    tag_214:\n        /* \"#utility.yul\":10490:10515   */\n      swap2\n      pop\n        /* \"#utility.yul\":10529:10549   */\n      tag_215\n        /* \"#utility.yul\":10547:10548   */\n      dup4\n        /* \"#utility.yul\":10529:10549   */\n      tag_67\n      jump\t// in\n    tag_215:\n        /* \"#utility.yul\":10524:10549   */\n      swap3\n      pop\n        /* \"#utility.yul\":10572:10573   */\n      dup3\n        /* \"#utility.yul\":10569:10570   */\n      dup3\n        /* \"#utility.yul\":10565:10574   */\n      add\n        /* \"#utility.yul\":10558:10574   */\n      swap1\n      pop\n        /* \"#utility.yul\":10593:10596   */\n      dup1\n        /* \"#utility.yul\":10590:10591   */\n      dup3\n        /* \"#utility.yul\":10587:10597   */\n      gt\n        /* \"#utility.yul\":10584:10620   */\n      iszero\n      tag_216\n      jumpi\n        /* \"#utility.yul\":10600:10618   */\n      tag_217\n      tag_102\n      jump\t// in\n    tag_217:\n        /* \"#utility.yul\":10584:10620   */\n    tag_216:\n        /* \"#utility.yul\":10436:10627   */\n      swap3\n      swap2\n      pop\n      pop\n      jump\t// out\n\n    auxdata: 0xa26469706673582212209c1fe57031f79d809f50c4488cc0359af42b4ae87e65303b22ddb1c36263e00064736f6c63430008120033\n}\n",
				"bytecode": {
					"linkReferences": {},
					"object": "60806040526040518060600160405280600160ff168152602001600260ff168152602001600360ff16815250600090600361003b92919061004e565b5034801561004857600080fd5b506100bd565b82805482825590600052602060002090810192821561008f579160200282015b8281111561008e578251829060ff1690559160200191906001019061006e565b5b50905061009c91906100a0565b5090565b5b808211156100b95760008160009055506001016100a1565b5090565b6109d1806100cc6000396000f3fe608060405234801561001057600080fd5b506004361061007d5760003560e01c80639b1a379c1161005b5780639b1a379c146100b4578063a56dfe4a146100e5578063c5d7802e14610103578063febb0f7e146101215761007d565b806320028990146100825780632ee79ded1461008c5780636a8d1e0814610096575b600080fd5b61008a61013f565b005b610094610252565b005b61009e6102a1565b6040516100ab91906103d4565b60405180910390f35b6100ce60048036038101906100c9919061045e565b6102f1565b6040516100dc929190610526565b60405180910390f35b6100ed610301565b6040516100fa91906103d4565b60405180910390f35b61010b610307565b60405161011891906105da565b60405180910390f35b610129610395565b60405161013691906103d4565b60405180910390f35b60008080548060200260200160405190810160405280929190818152602001828054801561018c57602002820191906000526020600020905b815481526020019060010190808311610178575b505050505090506064816000815181106101a9576101a86105fc565b5b60200260200101818152505060c8816001815181106101cb576101ca6105fc565b5b60200260200101818152505060008080548060200260200160405190810160405280929190818152602001828054801561022457602002820191906000526020600020905b815481526020019060010190808311610210575b5050505050905061012c81600081518110610242576102416105fc565b5b6020026020010181815250505050565b60026001819055506040518060400160405280600581526020017f68656c6c6f0000000000000000000000000000000000000000000000000000008152506002908161029e9190610866565b50565b600080600090506064816000815481106102be576102bd6105fc565b5b9060005260206000200181905550600080815481106102e0576102df6105fc565b5b906000526020600020015491505090565b3660008383915091509250929050565b60015481565b6002805461031490610689565b80601f016020809104026020016040519081016040528092919081815260200182805461034090610689565b801561038d5780601f106103625761010080835404028352916020019161038d565b820191906000526020600020905b81548152906001019060200180831161037057829003601f168201915b505050505081565b60008060019050600060039050600081836103b09190610967565b905080935050505090565b6000819050919050565b6103ce816103bb565b82525050565b60006020820190506103e960008301846103c5565b92915050565b600080fd5b600080fd5b600080fd5b600080fd5b600080fd5b60008083601f84011261041e5761041d6103f9565b5b8235905067ffffffffffffffff81111561043b5761043a6103fe565b5b60208301915083602082028301111561045757610456610403565b5b9250929050565b60008060208385031215610475576104746103ef565b5b600083013567ffffffffffffffff811115610493576104926103f4565b5b61049f85828601610408565b92509250509250929050565b600082825260208201905092915050565b600080fd5b82818337505050565b60006104d683856104ab565b93507f07ffffffffffffffffffffffffffffffffffffffffffffffffffffffffffffff831115610509576105086104bc565b5b60208302925061051a8385846104c1565b82840190509392505050565b600060208201905081810360008301526105418184866104ca565b90509392505050565b600081519050919050565b600082825260208201905092915050565b60005b83811015610584578082015181840152602081019050610569565b60008484015250505050565b6000601f19601f8301169050919050565b60006105ac8261054a565b6105b68185610555565b93506105c6818560208601610566565b6105cf81610590565b840191505092915050565b600060208201905081810360008301526105f481846105a1565b905092915050565b7f4e487b7100000000000000000000000000000000000000000000000000000000600052603260045260246000fd5b7f4e487b7100000000000000000000000000000000000000000000000000000000600052604160045260246000fd5b7f4e487b7100000000000000000000000000000000000000000000000000000000600052602260045260246000fd5b600060028204905060018216806106a157607f821691505b6020821081036106b4576106b361065a565b5b50919050565b60008190508160005260206000209050919050565b60006020601f8301049050919050565b600082821b905092915050565b60006008830261071c7fffffffffffffffffffffffffffffffffffffffffffffffffffffffffffffffff826106df565b61072686836106df565b95508019841693508086168417925050509392505050565b6000819050919050565b600061076361075e610759846103bb565b61073e565b6103bb565b9050919050565b6000819050919050565b61077d83610748565b6107916107898261076a565b8484546106ec565b825550505050565b600090565b6107a6610799565b6107b1818484610774565b505050565b5b818110156107d5576107ca60008261079e565b6001810190506107b7565b5050565b601f82111561081a576107eb816106ba565b6107f4846106cf565b81016020851015610803578190505b61081761080f856106cf565b8301826107b6565b50505b505050565b600082821c905092915050565b600061083d6000198460080261081f565b1980831691505092915050565b6000610856838361082c565b9150826002028217905092915050565b61086f8261054a565b67ffffffffffffffff8111156108885761088761062b565b5b6108928254610689565b61089d8282856107d9565b600060209050601f8311600181146108d057600084156108be578287015190505b6108c8858261084a565b865550610930565b601f1984166108de866106ba565b60005b82811015610906578489015182556001820191506020850194506020810190506108e1565b86831015610923578489015161091f601f89168261082c565b8355505b6001600288020188555050505b505050505050565b7f4e487b7100000000000000000000000000000000000000000000000000000000600052601160045260246000fd5b6000610972826103bb565b915061097d836103bb565b925082820190508082111561099557610994610938565b5b9291505056fea26469706673582212209c1fe57031f79d809f50c4488cc0359af42b4ae87e65303b22ddb1c36263e00064736f6c63430008120033",
					"opcodes": "PUSH1 0x80 PUSH1 0x40 MSTORE PUSH1 0x40 MLOAD DUP1 PUSH1 0x60 ADD PUSH1 0x40 MSTORE DUP1 PUSH1 0x1 PUSH1 0xFF AND DUP2 MSTORE PUSH1 0x20 ADD PUSH1 0x2 PUSH1 0xFF AND DUP2 MSTORE PUSH1 0x20 ADD PUSH1 0x3 PUSH1 0xFF AND DUP2 MSTORE POP PUSH1 0x0 SWAP1 PUSH1 0x3 PUSH2 0x3B SWAP3 SWAP2 SWAP1 PUSH2 0x4E JUMP JUMPDEST POP CALLVALUE DUP1 ISZERO PUSH2 0x48 JUMPI PUSH1 0x0 DUP1 REVERT JUMPDEST POP PUSH2 0xBD JUMP JUMPDEST DUP3 DUP1 SLOAD DUP3 DUP3 SSTORE SWAP1 PUSH1 0x0 MSTORE PUSH1 0x20 PUSH1 0x0 KECCAK256 SWAP1 DUP2 ADD SWAP3 DUP3 ISZERO PUSH2 0x8F JUMPI SWAP2 PUSH1 0x20 MUL DUP3 ADD JUMPDEST DUP3 DUP2 GT ISZERO PUSH2 0x8E JUMPI DUP3 MLOAD DUP3 SWAP1 PUSH1 0xFF AND SWAP1 SSTORE SWAP2 PUSH1 0x20 ADD SWAP2 SWAP1 PUSH1 0x1 ADD SWAP1 PUSH2 0x6E JUMP JUMPDEST JUMPDEST POP SWAP1 POP PUSH2 0x9C SWAP2 SWAP1 PUSH2 0xA0 JUMP JUMPDEST POP SWAP1 JUMP JUMPDEST JUMPDEST DUP1 DUP3 GT ISZERO PUSH2 0xB9 JUMPI PUSH1 0x0 DUP2 PUSH1 0x0 SWAP1 SSTORE POP PUSH1 0x1 ADD PUSH2 0xA1 JUMP JUMPDEST POP SWAP1 JUMP JUMPDEST PUSH2 0x9D1 DUP1 PUSH2 0xCC PUSH1 0x0 CODECOPY PUSH1 0x0 RETURN INVALID PUSH1 0x80 PUSH1 0x40 MSTORE CALLVALUE DUP1 ISZERO PUSH2 0x10 JUMPI PUSH1 0x0 DUP1 REVERT JUMPDEST POP PUSH1 0x4 CALLDATASIZE LT PUSH2 0x7D JUMPI PUSH1 0x0 CALLDATALOAD PUSH1 0xE0 SHR DUP1 PUSH4 0x9B1A379C GT PUSH2 0x5B JUMPI DUP1 PUSH4 0x9B1A379C EQ PUSH2 0xB4 JUMPI DUP1 PUSH4 0xA56DFE4A EQ PUSH2 0xE5 JUMPI DUP1 PUSH4 0xC5D7802E EQ PUSH2 0x103 JUMPI DUP1 PUSH4 0xFEBB0F7E EQ PUSH2 0x121 JUMPI PUSH2 0x7D JUMP JUMPDEST DUP1 PUSH4 0x20028990 EQ PUSH2 0x82 JUMPI DUP1 PUSH4 0x2EE79DED EQ PUSH2 0x8C JUMPI DUP1 PUSH4 0x6A8D1E08 EQ PUSH2 0x96 JUMPI JUMPDEST PUSH1 0x0 DUP1 REVERT JUMPDEST PUSH2 0x8A PUSH2 0x13F JUMP JUMPDEST STOP JUMPDEST PUSH2 0x94 PUSH2 0x252 JUMP JUMPDEST STOP JUMPDEST PUSH2 0x9E PUSH2 0x2A1 JUMP JUMPDEST PUSH1 0x40 MLOAD PUSH2 0xAB SWAP2 SWAP1 PUSH2 0x3D4 JUMP JUMPDEST PUSH1 0x40 MLOAD DUP1 SWAP2 SUB SWAP1 RETURN JUMPDEST PUSH2 0xCE PUSH1 0x4 DUP1 CALLDATASIZE SUB DUP2 ADD SWAP1 PUSH2 0xC9 SWAP2 SWAP1 PUSH2 0x45E JUMP JUMPDEST PUSH2 0x2F1 JUMP JUMPDEST PUSH1 0x40 MLOAD PUSH2 0xDC SWAP3 SWAP2 SWAP1 PUSH2 0x526 JUMP JUMPDEST PUSH1 0x40 MLOAD DUP1 SWAP2 SUB SWAP1 RETURN JUMPDEST PUSH2 0xED PUSH2 0x301 JUMP JUMPDEST PUSH1 0x40 MLOAD PUSH2 0xFA SWAP2 SWAP1 PUSH2 0x3D4 JUMP JUMPDEST PUSH1 0x40 MLOAD DUP1 SWAP2 SUB SWAP1 RETURN JUMPDEST PUSH2 0x10B PUSH2 0x307 JUMP JUMPDEST PUSH1 0x40 MLOAD PUSH2 0x118 SWAP2 SWAP1 PUSH2 0x5DA JUMP JUMPDEST PUSH1 0x40 MLOAD DUP1 SWAP2 SUB SWAP1 RETURN JUMPDEST PUSH2 0x129 PUSH2 0x395 JUMP JUMPDEST PUSH1 0x40 MLOAD PUSH2 0x136 SWAP2 SWAP1 PUSH2 0x3D4 JUMP JUMPDEST PUSH1 0x40 MLOAD DUP1 SWAP2 SUB SWAP1 RETURN JUMPDEST PUSH1 0x0 DUP1 DUP1 SLOAD DUP1 PUSH1 0x20 MUL PUSH1 0x20 ADD PUSH1 0x40 MLOAD SWAP1 DUP2 ADD PUSH1 0x40 MSTORE DUP1 SWAP3 SWAP2 SWAP1 DUP2 DUP2 MSTORE PUSH1 0x20 ADD DUP3 DUP1 SLOAD DUP1 ISZERO PUSH2 0x18C JUMPI PUSH1 0x20 MUL DUP3 ADD SWAP2 SWAP1 PUSH1 0x0 MSTORE PUSH1 0x20 PUSH1 0x0 KECCAK256 SWAP1 JUMPDEST DUP2 SLOAD DUP2 MSTORE PUSH1 0x20 ADD SWAP1 PUSH1 0x1 ADD SWAP1 DUP1 DUP4 GT PUSH2 0x178 JUMPI JUMPDEST POP POP POP POP POP SWAP1 POP PUSH1 0x64 DUP2 PUSH1 0x0 DUP2 MLOAD DUP2 LT PUSH2 0x1A9 JUMPI PUSH2 0x1A8 PUSH2 0x5FC JUMP JUMPDEST JUMPDEST PUSH1 0x20 MUL PUSH1 0x20 ADD ADD DUP2 DUP2 MSTORE POP POP PUSH1 0xC8 DUP2 PUSH1 0x1 DUP2 MLOAD DUP2 LT PUSH2 0x1CB JUMPI PUSH2 0x1CA PUSH2 0x5FC JUMP JUMPDEST JUMPDEST PUSH1 0x20 MUL PUSH1 0x20 ADD ADD DUP2 DUP2 MSTORE POP POP PUSH1 0x0 DUP1 DUP1 SLOAD DUP1 PUSH1 0x20 MUL PUSH1 0x20 ADD PUSH1 0x40 MLOAD SWAP1 DUP2 ADD PUSH1 0x40 MSTORE DUP1 SWAP3 SWAP2 SWAP1 DUP2 DUP2 MSTORE PUSH1 0x20 ADD DUP3 DUP1 SLOAD DUP1 ISZERO PUSH2 0x224 JUMPI PUSH1 0x20 MUL DUP3 ADD SWAP2 SWAP1 PUSH1 0x0 MSTORE PUSH1 0x20 PUSH1 0x0 KECCAK256 SWAP1 JUMPDEST DUP2 SLOAD DUP2 MSTORE PUSH1 0x20 ADD SWAP1 PUSH1 0x1 ADD SWAP1 DUP1 DUP4 GT PUSH2 0x210 JUMPI JUMPDEST POP POP POP POP POP SWAP1 POP PUSH2 0x12C DUP2 PUSH1 0x0 DUP2 MLOAD DUP2 LT PUSH2 0x242 JUMPI PUSH2 0x241 PUSH2 0x5FC JUMP JUMPDEST JUMPDEST PUSH1 0x20 MUL PUSH1 0x20 ADD ADD DUP2 DUP2 MSTORE POP POP POP POP JUMP JUMPDEST PUSH1 0x2 PUSH1 0x1 DUP2 SWAP1 SSTORE POP PUSH1 0x40 MLOAD DUP1 PUSH1 0x40 ADD PUSH1 0x40 MSTORE DUP1 PUSH1 0x5 DUP2 MSTORE PUSH1 0x20 ADD PUSH32 0x68656C6C6F000000000000000000000000000000000000000000000000000000 DUP2 MSTORE POP PUSH1 0x2 SWAP1 DUP2 PUSH2 0x29E SWAP2 SWAP1 PUSH2 0x866 JUMP JUMPDEST POP JUMP JUMPDEST PUSH1 0x0 DUP1 PUSH1 0x0 SWAP1 POP PUSH1 0x64 DUP2 PUSH1 0x0 DUP2 SLOAD DUP2 LT PUSH2 0x2BE JUMPI PUSH2 0x2BD PUSH2 0x5FC JUMP JUMPDEST JUMPDEST SWAP1 PUSH1 0x0 MSTORE PUSH1 0x20 PUSH1 0x0 KECCAK256 ADD DUP2 SWAP1 SSTORE POP PUSH1 0x0 DUP1 DUP2 SLOAD DUP2 LT PUSH2 0x2E0 JUMPI PUSH2 0x2DF PUSH2 0x5FC JUMP JUMPDEST JUMPDEST SWAP1 PUSH1 0x0 MSTORE PUSH1 0x20 PUSH1 0x0 KECCAK256 ADD SLOAD SWAP2 POP POP SWAP1 JUMP JUMPDEST CALLDATASIZE PUSH1 0x0 DUP4 DUP4 SWAP2 POP SWAP2 POP SWAP3 POP SWAP3 SWAP1 POP JUMP JUMPDEST PUSH1 0x1 SLOAD DUP2 JUMP JUMPDEST PUSH1 0x2 DUP1 SLOAD PUSH2 0x314 SWAP1 PUSH2 0x689 JUMP JUMPDEST DUP1 PUSH1 0x1F ADD PUSH1 0x20 DUP1 SWAP2 DIV MUL PUSH1 0x20 ADD PUSH1 0x40 MLOAD SWAP1 DUP2 ADD PUSH1 0x40 MSTORE DUP1 SWAP3 SWAP2 SWAP1 DUP2 DUP2 MSTORE PUSH1 0x20 ADD DUP3 DUP1 SLOAD PUSH2 0x340 SWAP1 PUSH2 0x689 JUMP JUMPDEST DUP1 ISZERO PUSH2 0x38D JUMPI DUP1 PUSH1 0x1F LT PUSH2 0x362 JUMPI PUSH2 0x100 DUP1 DUP4 SLOAD DIV MUL DUP4 MSTORE SWAP2 PUSH1 0x20 ADD SWAP2 PUSH2 0x38D JUMP JUMPDEST DUP3 ADD SWAP2 SWAP1 PUSH1 0x0 MSTORE PUSH1 0x20 PUSH1 0x0 KECCAK256 SWAP1 JUMPDEST DUP2 SLOAD DUP2 MSTORE SWAP1 PUSH1 0x1 ADD SWAP1 PUSH1 0x20 ADD DUP1 DUP4 GT PUSH2 0x370 JUMPI DUP3 SWAP1 SUB PUSH1 0x1F AND DUP3 ADD SWAP2 JUMPDEST POP POP POP POP POP DUP2 JUMP JUMPDEST PUSH1 0x0 DUP1 PUSH1 0x1 SWAP1 POP PUSH1 0x0 PUSH1 0x3 SWAP1 POP PUSH1 0x0 DUP2 DUP4 PUSH2 0x3B0 SWAP2 SWAP1 PUSH2 0x967 JUMP JUMPDEST SWAP1 POP DUP1 SWAP4 POP POP POP POP SWAP1 JUMP JUMPDEST PUSH1 0x0 DUP2 SWAP1 POP SWAP2 SWAP1 POP JUMP JUMPDEST PUSH2 0x3CE DUP2 PUSH2 0x3BB JUMP JUMPDEST DUP3 MSTORE POP POP JUMP JUMPDEST PUSH1 0x0 PUSH1 0x20 DUP3 ADD SWAP1 POP PUSH2 0x3E9 PUSH1 0x0 DUP4 ADD DUP5 PUSH2 0x3C5 JUMP JUMPDEST SWAP3 SWAP2 POP POP JUMP JUMPDEST PUSH1 0x0 DUP1 REVERT JUMPDEST PUSH1 0x0 DUP1 REVERT JUMPDEST PUSH1 0x0 DUP1 REVERT JUMPDEST PUSH1 0x0 DUP1 REVERT JUMPDEST PUSH1 0x0 DUP1 REVERT JUMPDEST PUSH1 0x0 DUP1 DUP4 PUSH1 0x1F DUP5 ADD SLT PUSH2 0x41E JUMPI PUSH2 0x41D PUSH2 0x3F9 JUMP JUMPDEST JUMPDEST DUP3 CALLDATALOAD SWAP1 POP PUSH8 0xFFFFFFFFFFFFFFFF DUP2 GT ISZERO PUSH2 0x43B JUMPI PUSH2 0x43A PUSH2 0x3FE JUMP JUMPDEST JUMPDEST PUSH1 0x20 DUP4 ADD SWAP2 POP DUP4 PUSH1 0x20 DUP3 MUL DUP4 ADD GT ISZERO PUSH2 0x457 JUMPI PUSH2 0x456 PUSH2 0x403 JUMP JUMPDEST JUMPDEST SWAP3 POP SWAP3 SWAP1 POP JUMP JUMPDEST PUSH1 0x0 DUP1 PUSH1 0x20 DUP4 DUP6 SUB SLT ISZERO PUSH2 0x475 JUMPI PUSH2 0x474 PUSH2 0x3EF JUMP JUMPDEST JUMPDEST PUSH1 0x0 DUP4 ADD CALLDATALOAD PUSH8 0xFFFFFFFFFFFFFFFF DUP2 GT ISZERO PUSH2 0x493 JUMPI PUSH2 0x492 PUSH2 0x3F4 JUMP JUMPDEST JUMPDEST PUSH2 0x49F DUP6 DUP3 DUP7 ADD PUSH2 0x408 JUMP JUMPDEST SWAP3 POP SWAP3 POP POP SWAP3 POP SWAP3 SWAP1 POP JUMP JUMPDEST PUSH1 0x0 DUP3 DUP3 MSTORE PUSH1 0x20 DUP3 ADD SWAP1 POP SWAP3 SWAP2 POP POP JUMP JUMPDEST PUSH1 0x0 DUP1 REVERT JUMPDEST DUP3 DUP2 DUP4 CALLDATACOPY POP POP POP JUMP JUMPDEST PUSH1 0x0 PUSH2 0x4D6 DUP4 DUP6 PUSH2 0x4AB JUMP JUMPDEST SWAP4 POP PUSH32 0x7FFFFFFFFFFFFFFFFFFFFFFFFFFFFFFFFFFFFFFFFFFFFFFFFFFFFFFFFFFFFFF DUP4 GT ISZERO PUSH2 0x509 JUMPI PUSH2 0x508 PUSH2 0x4BC JUMP JUMPDEST JUMPDEST PUSH1 0x20 DUP4 MUL SWAP3 POP PUSH2 0x51A DUP4 DUP6 DUP5 PUSH2 0x4C1 JUMP JUMPDEST DUP3 DUP5 ADD SWAP1 POP SWAP4 SWAP3 POP POP POP JUMP JUMPDEST PUSH1 0x0 PUSH1 0x20 DUP3 ADD SWAP1 POP DUP2 DUP2 SUB PUSH1 0x0 DUP4 ADD MSTORE PUSH2 0x541 DUP2 DUP5 DUP7 PUSH2 0x4CA JUMP JUMPDEST SWAP1 POP SWAP4 SWAP3 POP POP POP JUMP JUMPDEST PUSH1 0x0 DUP2 MLOAD SWAP1 POP SWAP2 SWAP1 POP JUMP JUMPDEST PUSH1 0x0 DUP3 DUP3 MSTORE PUSH1 0x20 DUP3 ADD SWAP1 POP SWAP3 SWAP2 POP POP JUMP JUMPDEST PUSH1 0x0 JUMPDEST DUP4 DUP2 LT ISZERO PUSH2 0x584 JUMPI DUP1 DUP3 ADD MLOAD DUP2 DUP5 ADD MSTORE PUSH1 0x20 DUP2 ADD SWAP1 POP PUSH2 0x569 JUMP JUMPDEST PUSH1 0x0 DUP5 DUP5 ADD MSTORE POP POP POP POP JUMP JUMPDEST PUSH1 0x0 PUSH1 0x1F NOT PUSH1 0x1F DUP4 ADD AND SWAP1 POP SWAP2 SWAP1 POP JUMP JUMPDEST PUSH1 0x0 PUSH2 0x5AC DUP3 PUSH2 0x54A JUMP JUMPDEST PUSH2 0x5B6 DUP2 DUP6 PUSH2 0x555 JUMP JUMPDEST SWAP4 POP PUSH2 0x5C6 DUP2 DUP6 PUSH1 0x20 DUP7 ADD PUSH2 0x566 JUMP JUMPDEST PUSH2 0x5CF DUP2 PUSH2 0x590 JUMP JUMPDEST DUP5 ADD SWAP2 POP POP SWAP3 SWAP2 POP POP JUMP JUMPDEST PUSH1 0x0 PUSH1 0x20 DUP3 ADD SWAP1 POP DUP2 DUP2 SUB PUSH1 0x0 DUP4 ADD MSTORE PUSH2 0x5F4 DUP2 DUP5 PUSH2 0x5A1 JUMP JUMPDEST SWAP1 POP SWAP3 SWAP2 POP POP JUMP JUMPDEST PUSH32 0x4E487B7100000000000000000000000000000000000000000000000000000000 PUSH1 0x0 MSTORE PUSH1 0x32 PUSH1 0x4 MSTORE PUSH1 0x24 PUSH1 0x0 REVERT JUMPDEST PUSH32 0x4E487B7100000000000000000000000000000000000000000000000000000000 PUSH1 0x0 MSTORE PUSH1 0x41 PUSH1 0x4 MSTORE PUSH1 0x24 PUSH1 0x0 REVERT JUMPDEST PUSH32 0x4E487B7100000000000000000000000000000000000000000000000000000000 PUSH1 0x0 MSTORE PUSH1 0x22 PUSH1 0x4 MSTORE PUSH1 0x24 PUSH1 0x0 REVERT JUMPDEST PUSH1 0x0 PUSH1 0x2 DUP3 DIV SWAP1 POP PUSH1 0x1 DUP3 AND DUP1 PUSH2 0x6A1 JUMPI PUSH1 0x7F DUP3 AND SWAP2 POP JUMPDEST PUSH1 0x20 DUP3 LT DUP2 SUB PUSH2 0x6B4 JUMPI PUSH2 0x6B3 PUSH2 0x65A JUMP JUMPDEST JUMPDEST POP SWAP2 SWAP1 POP JUMP JUMPDEST PUSH1 0x0 DUP2 SWAP1 POP DUP2 PUSH1 0x0 MSTORE PUSH1 0x20 PUSH1 0x0 KECCAK256 SWAP1 POP SWAP2 SWAP1 POP JUMP JUMPDEST PUSH1 0x0 PUSH1 0x20 PUSH1 0x1F DUP4 ADD DIV SWAP1 POP SWAP2 SWAP1 POP JUMP JUMPDEST PUSH1 0x0 DUP3 DUP3 SHL SWAP1 POP SWAP3 SWAP2 POP POP JUMP JUMPDEST PUSH1 0x0 PUSH1 0x8 DUP4 MUL PUSH2 0x71C PUSH32 0xFFFFFFFFFFFFFFFFFFFFFFFFFFFFFFFFFFFFFFFFFFFFFFFFFFFFFFFFFFFFFFFF DUP3 PUSH2 0x6DF JUMP JUMPDEST PUSH2 0x726 DUP7 DUP4 PUSH2 0x6DF JUMP JUMPDEST SWAP6 POP DUP1 NOT DUP5 AND SWAP4 POP DUP1 DUP7 AND DUP5 OR SWAP3 POP POP POP SWAP4 SWAP3 POP POP POP JUMP JUMPDEST PUSH1 0x0 DUP2 SWAP1 POP SWAP2 SWAP1 POP JUMP JUMPDEST PUSH1 0x0 PUSH2 0x763 PUSH2 0x75E PUSH2 0x759 DUP5 PUSH2 0x3BB JUMP JUMPDEST PUSH2 0x73E JUMP JUMPDEST PUSH2 0x3BB JUMP JUMPDEST SWAP1 POP SWAP2 SWAP1 POP JUMP JUMPDEST PUSH1 0x0 DUP2 SWAP1 POP SWAP2 SWAP1 POP JUMP JUMPDEST PUSH2 0x77D DUP4 PUSH2 0x748 JUMP JUMPDEST PUSH2 0x791 PUSH2 0x789 DUP3 PUSH2 0x76A JUMP JUMPDEST DUP5 DUP5 SLOAD PUSH2 0x6EC JUMP JUMPDEST DUP3 SSTORE POP POP POP POP JUMP JUMPDEST PUSH1 0x0 SWAP1 JUMP JUMPDEST PUSH2 0x7A6 PUSH2 0x799 JUMP JUMPDEST PUSH2 0x7B1 DUP2 DUP5 DUP5 PUSH2 0x774 JUMP JUMPDEST POP POP POP JUMP JUMPDEST JUMPDEST DUP2 DUP2 LT ISZERO PUSH2 0x7D5 JUMPI PUSH2 0x7CA PUSH1 0x0 DUP3 PUSH2 0x79E JUMP JUMPDEST PUSH1 0x1 DUP2 ADD SWAP1 POP PUSH2 0x7B7 JUMP JUMPDEST POP POP JUMP JUMPDEST PUSH1 0x1F DUP3 GT ISZERO PUSH2 0x81A JUMPI PUSH2 0x7EB DUP2 PUSH2 0x6BA JUMP JUMPDEST PUSH2 0x7F4 DUP5 PUSH2 0x6CF JUMP JUMPDEST DUP2 ADD PUSH1 0x20 DUP6 LT ISZERO PUSH2 0x803 JUMPI DUP2 SWAP1 POP JUMPDEST PUSH2 0x817 PUSH2 0x80F DUP6 PUSH2 0x6CF JUMP JUMPDEST DUP4 ADD DUP3 PUSH2 0x7B6 JUMP JUMPDEST POP POP JUMPDEST POP POP POP JUMP JUMPDEST PUSH1 0x0 DUP3 DUP3 SHR SWAP1 POP SWAP3 SWAP2 POP POP JUMP JUMPDEST PUSH1 0x0 PUSH2 0x83D PUSH1 0x0 NOT DUP5 PUSH1 0x8 MUL PUSH2 0x81F JUMP JUMPDEST NOT DUP1 DUP4 AND SWAP2 POP POP SWAP3 SWAP2 POP POP JUMP JUMPDEST PUSH1 0x0 PUSH2 0x856 DUP4 DUP4 PUSH2 0x82C JUMP JUMPDEST SWAP2 POP DUP3 PUSH1 0x2 MUL DUP3 OR SWAP1 POP SWAP3 SWAP2 POP POP JUMP JUMPDEST PUSH2 0x86F DUP3 PUSH2 0x54A JUMP JUMPDEST PUSH8 0xFFFFFFFFFFFFFFFF DUP2 GT ISZERO PUSH2 0x888 JUMPI PUSH2 0x887 PUSH2 0x62B JUMP JUMPDEST JUMPDEST PUSH2 0x892 DUP3 SLOAD PUSH2 0x689 JUMP JUMPDEST PUSH2 0x89D DUP3 DUP3 DUP6 PUSH2 0x7D9 JUMP JUMPDEST PUSH1 0x0 PUSH1 0x20 SWAP1 POP PUSH1 0x1F DUP4 GT PUSH1 0x1 DUP2 EQ PUSH2 0x8D0 JUMPI PUSH1 0x0 DUP5 ISZERO PUSH2 0x8BE JUMPI DUP3 DUP8 ADD MLOAD SWAP1 POP JUMPDEST PUSH2 0x8C8 DUP6 DUP3 PUSH2 0x84A JUMP JUMPDEST DUP7 SSTORE POP PUSH2 0x930 JUMP JUMPDEST PUSH1 0x1F NOT DUP5 AND PUSH2 0x8DE DUP7 PUSH2 0x6BA JUMP JUMPDEST PUSH1 0x0 JUMPDEST DUP3 DUP2 LT ISZERO PUSH2 0x906 JUMPI DUP5 DUP10 ADD MLOAD DUP3 SSTORE PUSH1 0x1 DUP3 ADD SWAP2 POP PUSH1 0x20 DUP6 ADD SWAP5 POP PUSH1 0x20 DUP2 ADD SWAP1 POP PUSH2 0x8E1 JUMP JUMPDEST DUP7 DUP4 LT ISZERO PUSH2 0x923 JUMPI DUP5 DUP10 ADD MLOAD PUSH2 0x91F PUSH1 0x1F DUP10 AND DUP3 PUSH2 0x82C JUMP JUMPDEST DUP4 SSTORE POP JUMPDEST PUSH1 0x1 PUSH1 0x2 DUP9 MUL ADD DUP9 SSTORE POP POP POP JUMPDEST POP POP POP POP POP POP JUMP JUMPDEST PUSH32 0x4E487B7100000000000000000000000000000000000000000000000000000000 PUSH1 0x0 MSTORE PUSH1 0x11 PUSH1 0x4 MSTORE PUSH1 0x24 PUSH1 0x0 REVERT JUMPDEST PUSH1 0x0 PUSH2 0x972 DUP3 PUSH2 0x3BB JUMP JUMPDEST SWAP2 POP PUSH2 0x97D DUP4 PUSH2 0x3BB JUMP JUMPDEST SWAP3 POP DUP3 DUP3 ADD SWAP1 POP DUP1 DUP3 GT ISZERO PUSH2 0x995 JUMPI PUSH2 0x994 PUSH2 0x938 JUMP JUMPDEST JUMPDEST SWAP3 SWAP2 POP POP JUMP INVALID LOG2 PUSH5 0x6970667358 0x22 SLT KECCAK256 SWAP13 0x1F 0xE5 PUSH17 0x31F79D809F50C4488CC0359AF42B4AE87E PUSH6 0x303B22DDB1C3 PUSH3 0x63E000 PUSH5 0x736F6C6343 STOP ADDMOD SLT STOP CALLER "
				},
				"gasEstimates": {
					"creation": {
						"codeDepositCost": "502600",
						"executionCost": "infinite",
						"totalCost": "infinite"
					},
					"external": {
						"bar()": "infinite",
						"change()": "infinite",
						"fCalldata(uint256[])": "infinite",
						"fMemory()": "infinite",
						"fStorage()": "28969",
						"y()": "2451",
						"z()": "infinite"
					}
				},
				"methodIdentifiers": {
					"bar()": "febb0f7e",
					"change()": "2ee79ded",
					"fCalldata(uint256[])": "9b1a379c",
					"fMemory()": "20028990",
					"fStorage()": "6a8d1e08",
					"y()": "a56dfe4a",
					"z()": "c5d7802e"
				}
			},
			"storageLayout": {
				"storage": [
					{
						"astId": 8,
						"contract": "Study/Location.sol:text",
						"label": "x",
						"offset": 0,
						"slot": "0",
						"type": "t_array(t_uint256)dyn_storage"
					},
					{
						"astId": 10,
						"contract": "Study/Location.sol:text",
						"label": "y",
						"offset": 0,
						"slot": "1",
						"type": "t_uint256"
					},
					{
						"astId": 12,
						"contract": "Study/Location.sol:text",
						"label": "z",
						"offset": 0,
						"slot": "2",
						"type": "t_string_storage"
					}
				],
				"types": {
					"t_array(t_uint256)dyn_storage": {
						"base": "t_uint256",
						"encoding": "dynamic_array",
						"label": "uint256[]",
						"numberOfBytes": "32"
					},
					"t_string_storage": {
						"encoding": "bytes",
						"label": "string",
						"numberOfBytes": "32"
					},
					"t_uint256": {
						"encoding": "inplace",
						"label": "uint256",
						"numberOfBytes": "32"
					}
				}
			},
			"userdoc": {
				"kind": "user",
				"methods": {},
				"version": 1
			}
		}
	}
}