{
	"Study/Type.sol": {
		"text": {
			"abi": [
				{
					"inputs": [],
					"name": "_byte",
					"outputs": [
						{
							"internalType": "bytes1",
							"name": "",
							"type": "bytes1"
						}
					],
					"stateMutability": "view",
					"type": "function"
				},
				{
					"inputs": [],
					"name": "_byte32",
					"outputs": [
						{
							"internalType": "bytes32",
							"name": "",
							"type": "bytes32"
						}
					],
					"stateMutability": "view",
					"type": "function"
				},
				{
					"inputs": [],
					"name": "balance",
					"outputs": [
						{
							"internalType": "uint256",
							"name": "",
							"type": "uint256"
						}
					],
					"stateMutability": "view",
					"type": "function"
				},
				{
					"inputs": [],
					"name": "flag",
					"outputs": [
						{
							"internalType": "bool",
							"name": "",
							"type": "bool"
						}
					],
					"stateMutability": "view",
					"type": "function"
				},
				{
					"inputs": [],
					"name": "me",
					"outputs": [
						{
							"internalType": "address",
							"name": "",
							"type": "address"
						}
					],
					"stateMutability": "view",
					"type": "function"
				},
				{
					"inputs": [],
					"name": "num1",
					"outputs": [
						{
							"internalType": "uint256",
							"name": "",
							"type": "uint256"
						}
					],
					"stateMutability": "view",
					"type": "function"
				},
				{
					"inputs": [],
					"name": "num1_1",
					"outputs": [
						{
							"internalType": "uint256",
							"name": "",
							"type": "uint256"
						}
					],
					"stateMutability": "view",
					"type": "function"
				},
				{
					"inputs": [],
					"name": "num2",
					"outputs": [
						{
							"internalType": "uint256",
							"name": "",
							"type": "uint256"
						}
					],
					"stateMutability": "view",
					"type": "function"
				},
				{
					"inputs": [],
					"name": "other",
					"outputs": [
						{
							"internalType": "address payable",
							"name": "",
							"type": "address"
						}
					],
					"stateMutability": "view",
					"type": "function"
				}
			],
			"devdoc": {
				"kind": "dev",
				"methods": {},
				"version": 1
			},
			"evm": {
				"assembly": "    /* \"Study/Type.sol\":60:556  contract text{... */\n  mstore(0x40, 0x80)\n    /* \"Study/Type.sol\":129:130  2 */\n  0x02\n    /* \"Study/Type.sol\":109:130  uint public  num1 = 2 */\n  0x00\n  sstore\n    /* \"Study/Type.sol\":165:166  3 */\n  0x03\n    /* \"Study/Type.sol\":159:163  num1 */\n  sload(0x00)\n    /* \"Study/Type.sol\":159:166  num1**3 */\n  tag_1\n  swap2\n  swap1\n  tag_2\n  jump\t// in\ntag_1:\n    /* \"Study/Type.sol\":137:166  uint public  num1_1 = num1**3 */\n  0x01\n  sstore\n    /* \"Study/Type.sol\":193:194  3 */\n  0x03\n    /* \"Study/Type.sol\":173:194  uint public  num2 = 3 */\n  0x02\n  sstore\n    /* \"Study/Type.sol\":228:232  num2 */\n  sload(0x02)\n    /* \"Study/Type.sol\":221:225  num1 */\n  sload(0x00)\n    /* \"Study/Type.sol\":221:232  num1 > num2 */\n  gt\n    /* \"Study/Type.sol\":201:232  bool public  flag = num1 > num2 */\n  0x03\n  exp(0x0100, 0x00)\n  dup2\n  sload\n  dup2\n  0xff\n  mul\n  not\n  and\n  swap1\n  dup4\n  iszero\n  iszero\n  mul\n  or\n  swap1\n  sstore\n  pop\n    /* \"Study/Type.sol\":277:319  0x5B38Da6a701c568545dCfcB03FcB875f56beddC4 */\n  0x5b38da6a701c568545dcfcb03fcb875f56beddc4\n    /* \"Study/Type.sol\":256:319  address public  me = 0x5B38Da6a701c568545dCfcB03FcB875f56beddC4 */\n  0x03\n  exp(0x0100, 0x01)\n  dup2\n  sload\n  dup2\n  0xffffffffffffffffffffffffffffffffffffffff\n  mul\n  not\n  and\n  swap1\n  dup4\n  0xffffffffffffffffffffffffffffffffffffffff\n  and\n  mul\n  or\n  swap1\n  sstore\n  pop\n    /* \"Study/Type.sol\":365:367  me */\n  0x03\n  0x01\n  swap1\n  sload\n  swap1\n  0x0100\n  exp\n  swap1\n  div\n  0xffffffffffffffffffffffffffffffffffffffff\n  and\n    /* \"Study/Type.sol\":326:368  address payable public other = payable(me) */\n  0x04\n  exp(0x0100, 0x00)\n  dup2\n  sload\n  dup2\n  0xffffffffffffffffffffffffffffffffffffffff\n  mul\n  not\n  and\n  swap1\n  dup4\n  0xffffffffffffffffffffffffffffffffffffffff\n  and\n  mul\n  or\n  swap1\n  sstore\n  pop\n    /* \"Study/Type.sol\":426:431  other */\n  0x04\n  0x00\n  swap1\n  sload\n  swap1\n  0x0100\n  exp\n  swap1\n  div\n  0xffffffffffffffffffffffffffffffffffffffff\n  and\n    /* \"Study/Type.sol\":426:439  other.balance */\n  0xffffffffffffffffffffffffffffffffffffffff\n  and\n  balance\n    /* \"Study/Type.sol\":404:439  uint public balance = other.balance */\n  0x05\n  sstore\n    /* \"Study/Type.sol\":466:505  bytes32 public _byte32 = \"MiniSolidity\" */\n  sstore(0x06, 0x4d696e69536f6c69646974790000000000000000000000000000000000000000)\n    /* \"Study/Type.sol\":535:542  _byte32 */\n  sload(0x06)\n    /* \"Study/Type.sol\":543:544  0 */\n  0x00\n    /* \"Study/Type.sol\":535:545  _byte32[0] */\n  0x20\n  dup2\n  lt\n  tag_3\n  jumpi\n  tag_4\n  tag_5\n  jump\t// in\ntag_4:\ntag_3:\n  byte\n  0xf8\n  shl\n    /* \"Study/Type.sol\":513:545  bytes1 public _byte = _byte32[0] */\n  0x07\n  exp(0x0100, 0x00)\n  dup2\n  sload\n  dup2\n  0xff\n  mul\n  not\n  and\n  swap1\n  dup4\n  0xf8\n  shr\n  mul\n  or\n  swap1\n  sstore\n  pop\n    /* \"Study/Type.sol\":60:556  contract text{... */\n  callvalue\n  dup1\n  iszero\n  tag_6\n  jumpi\n  0x00\n  dup1\n  revert\ntag_6:\n  pop\n  jump(tag_7)\n    /* \"#utility.yul\":7:187   */\ntag_8:\n    /* \"#utility.yul\":55:132   */\n  0x4e487b7100000000000000000000000000000000000000000000000000000000\n    /* \"#utility.yul\":52:53   */\n  0x00\n    /* \"#utility.yul\":45:133   */\n  mstore\n    /* \"#utility.yul\":152:156   */\n  0x11\n    /* \"#utility.yul\":149:150   */\n  0x04\n    /* \"#utility.yul\":142:157   */\n  mstore\n    /* \"#utility.yul\":176:180   */\n  0x24\n    /* \"#utility.yul\":173:174   */\n  0x00\n    /* \"#utility.yul\":166:181   */\n  revert\n    /* \"#utility.yul\":193:295   */\ntag_9:\n    /* \"#utility.yul\":235:243   */\n  0x00\n    /* \"#utility.yul\":282:287   */\n  dup2\n    /* \"#utility.yul\":279:280   */\n  0x01\n    /* \"#utility.yul\":275:288   */\n  shr\n    /* \"#utility.yul\":254:288   */\n  swap1\n  pop\n    /* \"#utility.yul\":193:295   */\n  swap2\n  swap1\n  pop\n  jump\t// out\n    /* \"#utility.yul\":301:1149   */\ntag_10:\n    /* \"#utility.yul\":362:367   */\n  0x00\n    /* \"#utility.yul\":369:373   */\n  dup1\n    /* \"#utility.yul\":393:399   */\n  dup3\n    /* \"#utility.yul\":384:399   */\n  swap2\n  pop\n    /* \"#utility.yul\":417:422   */\n  dup4\n    /* \"#utility.yul\":408:422   */\n  swap1\n  pop\n    /* \"#utility.yul\":431:1143   */\ntag_18:\n    /* \"#utility.yul\":452:453   */\n  0x01\n    /* \"#utility.yul\":442:450   */\n  dup6\n    /* \"#utility.yul\":439:454   */\n  gt\n    /* \"#utility.yul\":431:1143   */\n  iszero\n  tag_20\n  jumpi\n    /* \"#utility.yul\":547:551   */\n  dup1\n    /* \"#utility.yul\":542:545   */\n  dup7\n    /* \"#utility.yul\":538:552   */\n  div\n    /* \"#utility.yul\":532:536   */\n  dup2\n    /* \"#utility.yul\":529:553   */\n  gt\n    /* \"#utility.yul\":526:576   */\n  iszero\n  tag_21\n  jumpi\n    /* \"#utility.yul\":556:574   */\n  tag_22\n  tag_8\n  jump\t// in\ntag_22:\n    /* \"#utility.yul\":526:576   */\ntag_21:\n    /* \"#utility.yul\":606:607   */\n  0x01\n    /* \"#utility.yul\":596:604   */\n  dup6\n    /* \"#utility.yul\":592:608   */\n  and\n    /* \"#utility.yul\":589:1040   */\n  iszero\n  tag_23\n  jumpi\n    /* \"#utility.yul\":1021:1025   */\n  dup1\n    /* \"#utility.yul\":1014:1019   */\n  dup3\n    /* \"#utility.yul\":1010:1026   */\n  mul\n    /* \"#utility.yul\":1001:1026   */\n  swap2\n  pop\n    /* \"#utility.yul\":589:1040   */\ntag_23:\n    /* \"#utility.yul\":1071:1075   */\n  dup1\n    /* \"#utility.yul\":1065:1069   */\n  dup2\n    /* \"#utility.yul\":1061:1076   */\n  mul\n    /* \"#utility.yul\":1053:1076   */\n  swap1\n  pop\n    /* \"#utility.yul\":1101:1133   */\n  tag_24\n    /* \"#utility.yul\":1124:1132   */\n  dup6\n    /* \"#utility.yul\":1101:1133   */\n  tag_9\n  jump\t// in\ntag_24:\n    /* \"#utility.yul\":1089:1133   */\n  swap5\n  pop\n    /* \"#utility.yul\":431:1143   */\n  jump(tag_18)\ntag_20:\n    /* \"#utility.yul\":301:1149   */\n  swap5\n  pop\n  swap5\n  swap3\n  pop\n  pop\n  pop\n  jump\t// out\n    /* \"#utility.yul\":1155:2228   */\ntag_11:\n    /* \"#utility.yul\":1209:1214   */\n  0x00\n    /* \"#utility.yul\":1400:1408   */\n  dup3\n    /* \"#utility.yul\":1390:1430   */\n  tag_26\n  jumpi\n    /* \"#utility.yul\":1421:1422   */\n  0x01\n    /* \"#utility.yul\":1412:1422   */\n  swap1\n  pop\n    /* \"#utility.yul\":1423:1428   */\n  jump(tag_25)\n    /* \"#utility.yul\":1390:1430   */\ntag_26:\n    /* \"#utility.yul\":1449:1453   */\n  dup2\n    /* \"#utility.yul\":1439:1475   */\n  tag_27\n  jumpi\n    /* \"#utility.yul\":1466:1467   */\n  0x00\n    /* \"#utility.yul\":1457:1467   */\n  swap1\n  pop\n    /* \"#utility.yul\":1468:1473   */\n  jump(tag_25)\n    /* \"#utility.yul\":1439:1475   */\ntag_27:\n    /* \"#utility.yul\":1535:1539   */\n  dup2\n    /* \"#utility.yul\":1583:1584   */\n  0x01\n    /* \"#utility.yul\":1578:1605   */\n  dup2\n  eq\n  tag_29\n  jumpi\n    /* \"#utility.yul\":1619:1620   */\n  0x02\n    /* \"#utility.yul\":1614:1805   */\n  dup2\n  eq\n  tag_30\n  jumpi\n    /* \"#utility.yul\":1528:1805   */\n  jump(tag_28)\n    /* \"#utility.yul\":1578:1605   */\ntag_29:\n    /* \"#utility.yul\":1596:1597   */\n  0x01\n    /* \"#utility.yul\":1587:1597   */\n  swap2\n  pop\n    /* \"#utility.yul\":1598:1603   */\n  pop\n  jump(tag_25)\n    /* \"#utility.yul\":1614:1805   */\ntag_30:\n    /* \"#utility.yul\":1659:1662   */\n  0xff\n    /* \"#utility.yul\":1649:1657   */\n  dup5\n    /* \"#utility.yul\":1646:1663   */\n  gt\n    /* \"#utility.yul\":1643:1686   */\n  iszero\n  tag_31\n  jumpi\n    /* \"#utility.yul\":1666:1684   */\n  tag_32\n  tag_8\n  jump\t// in\ntag_32:\n    /* \"#utility.yul\":1643:1686   */\ntag_31:\n    /* \"#utility.yul\":1715:1723   */\n  dup4\n    /* \"#utility.yul\":1712:1713   */\n  0x02\n    /* \"#utility.yul\":1708:1724   */\n  exp\n    /* \"#utility.yul\":1699:1724   */\n  swap2\n  pop\n    /* \"#utility.yul\":1750:1753   */\n  dup5\n    /* \"#utility.yul\":1743:1748   */\n  dup3\n    /* \"#utility.yul\":1740:1754   */\n  gt\n    /* \"#utility.yul\":1737:1777   */\n  iszero\n  tag_33\n  jumpi\n    /* \"#utility.yul\":1757:1775   */\n  tag_34\n  tag_8\n  jump\t// in\ntag_34:\n    /* \"#utility.yul\":1737:1777   */\ntag_33:\n    /* \"#utility.yul\":1790:1795   */\n  pop\n  jump(tag_25)\n    /* \"#utility.yul\":1528:1805   */\ntag_28:\n  pop\n    /* \"#utility.yul\":1914:1916   */\n  0x20\n    /* \"#utility.yul\":1904:1912   */\n  dup4\n    /* \"#utility.yul\":1901:1917   */\n  lt\n    /* \"#utility.yul\":1895:1898   */\n  0x0133\n    /* \"#utility.yul\":1889:1893   */\n  dup4\n    /* \"#utility.yul\":1886:1899   */\n  lt\n    /* \"#utility.yul\":1882:1918   */\n  and\n    /* \"#utility.yul\":1864:1866   */\n  0x4e\n    /* \"#utility.yul\":1854:1862   */\n  dup5\n    /* \"#utility.yul\":1851:1867   */\n  lt\n    /* \"#utility.yul\":1846:1848   */\n  0x0b\n    /* \"#utility.yul\":1840:1844   */\n  dup5\n    /* \"#utility.yul\":1837:1849   */\n  lt\n    /* \"#utility.yul\":1833:1868   */\n  and\n    /* \"#utility.yul\":1817:1928   */\n  or\n    /* \"#utility.yul\":1814:2060   */\n  iszero\n  tag_35\n  jumpi\n    /* \"#utility.yul\":1970:1978   */\n  dup3\n    /* \"#utility.yul\":1964:1968   */\n  dup3\n    /* \"#utility.yul\":1960:1979   */\n  exp\n    /* \"#utility.yul\":1951:1979   */\n  swap1\n  pop\n    /* \"#utility.yul\":2005:2008   */\n  dup4\n    /* \"#utility.yul\":1998:2003   */\n  dup2\n    /* \"#utility.yul\":1995:2009   */\n  gt\n    /* \"#utility.yul\":1992:2032   */\n  iszero\n  tag_36\n  jumpi\n    /* \"#utility.yul\":2012:2030   */\n  tag_37\n  tag_8\n  jump\t// in\ntag_37:\n    /* \"#utility.yul\":1992:2032   */\ntag_36:\n    /* \"#utility.yul\":2045:2050   */\n  jump(tag_25)\n    /* \"#utility.yul\":1814:2060   */\ntag_35:\n    /* \"#utility.yul\":2085:2127   */\n  tag_38\n    /* \"#utility.yul\":2123:2126   */\n  dup5\n    /* \"#utility.yul\":2113:2121   */\n  dup5\n    /* \"#utility.yul\":2107:2111   */\n  dup5\n    /* \"#utility.yul\":2104:2105   */\n  0x01\n    /* \"#utility.yul\":2085:2127   */\n  tag_10\n  jump\t// in\ntag_38:\n    /* \"#utility.yul\":2070:2127   */\n  swap3\n  pop\n  swap1\n  pop\n    /* \"#utility.yul\":2159:2163   */\n  dup2\n    /* \"#utility.yul\":2154:2157   */\n  dup5\n    /* \"#utility.yul\":2150:2164   */\n  div\n    /* \"#utility.yul\":2143:2148   */\n  dup2\n    /* \"#utility.yul\":2140:2165   */\n  gt\n    /* \"#utility.yul\":2137:2188   */\n  iszero\n  tag_39\n  jumpi\n    /* \"#utility.yul\":2168:2186   */\n  tag_40\n  tag_8\n  jump\t// in\ntag_40:\n    /* \"#utility.yul\":2137:2188   */\ntag_39:\n    /* \"#utility.yul\":2217:2221   */\n  dup2\n    /* \"#utility.yul\":2210:2215   */\n  dup2\n    /* \"#utility.yul\":2206:2222   */\n  mul\n    /* \"#utility.yul\":2197:2222   */\n  swap1\n  pop\n    /* \"#utility.yul\":1155:2228   */\ntag_25:\n  swap4\n  swap3\n  pop\n  pop\n  pop\n  jump\t// out\n    /* \"#utility.yul\":2234:2311   */\ntag_12:\n    /* \"#utility.yul\":2271:2278   */\n  0x00\n    /* \"#utility.yul\":2300:2305   */\n  dup2\n    /* \"#utility.yul\":2289:2305   */\n  swap1\n  pop\n    /* \"#utility.yul\":2234:2311   */\n  swap2\n  swap1\n  pop\n  jump\t// out\n    /* \"#utility.yul\":2317:2403   */\ntag_13:\n    /* \"#utility.yul\":2352:2359   */\n  0x00\n    /* \"#utility.yul\":2392:2396   */\n  0xff\n    /* \"#utility.yul\":2385:2390   */\n  dup3\n    /* \"#utility.yul\":2381:2397   */\n  and\n    /* \"#utility.yul\":2370:2397   */\n  swap1\n  pop\n    /* \"#utility.yul\":2317:2403   */\n  swap2\n  swap1\n  pop\n  jump\t// out\n    /* \"#utility.yul\":2409:2690   */\ntag_2:\n    /* \"#utility.yul\":2467:2472   */\n  0x00\n    /* \"#utility.yul\":2491:2514   */\n  tag_44\n    /* \"#utility.yul\":2509:2513   */\n  dup3\n    /* \"#utility.yul\":2491:2514   */\n  tag_12\n  jump\t// in\ntag_44:\n    /* \"#utility.yul\":2483:2514   */\n  swap2\n  pop\n    /* \"#utility.yul\":2535:2560   */\n  tag_45\n    /* \"#utility.yul\":2551:2559   */\n  dup4\n    /* \"#utility.yul\":2535:2560   */\n  tag_13\n  jump\t// in\ntag_45:\n    /* \"#utility.yul\":2523:2560   */\n  swap3\n  pop\n    /* \"#utility.yul\":2579:2683   */\n  tag_46\n    /* \"#utility.yul\":2616:2682   */\n  0xffffffffffffffffffffffffffffffffffffffffffffffffffffffffffffffff\n    /* \"#utility.yul\":2606:2614   */\n  dup5\n    /* \"#utility.yul\":2600:2604   */\n  dup5\n    /* \"#utility.yul\":2579:2683   */\n  tag_11\n  jump\t// in\ntag_46:\n    /* \"#utility.yul\":2570:2683   */\n  swap1\n  pop\n    /* \"#utility.yul\":2409:2690   */\n  swap3\n  swap2\n  pop\n  pop\n  jump\t// out\n    /* \"#utility.yul\":2696:2876   */\ntag_5:\n    /* \"#utility.yul\":2744:2821   */\n  0x4e487b7100000000000000000000000000000000000000000000000000000000\n    /* \"#utility.yul\":2741:2742   */\n  0x00\n    /* \"#utility.yul\":2734:2822   */\n  mstore\n    /* \"#utility.yul\":2841:2845   */\n  0x32\n    /* \"#utility.yul\":2838:2839   */\n  0x04\n    /* \"#utility.yul\":2831:2846   */\n  mstore\n    /* \"#utility.yul\":2865:2869   */\n  0x24\n    /* \"#utility.yul\":2862:2863   */\n  0x00\n    /* \"#utility.yul\":2855:2870   */\n  revert\n    /* \"Study/Type.sol\":60:556  contract text{... */\ntag_7:\n  dataSize(sub_0)\n  dup1\n  dataOffset(sub_0)\n  0x00\n  codecopy\n  0x00\n  return\nstop\n\nsub_0: assembly {\n        /* \"Study/Type.sol\":60:556  contract text{... */\n      mstore(0x40, 0x80)\n      callvalue\n      dup1\n      iszero\n      tag_1\n      jumpi\n      0x00\n      dup1\n      revert\n    tag_1:\n      pop\n      jumpi(tag_2, lt(calldatasize, 0x04))\n      shr(0xe0, calldataload(0x00))\n      dup1\n      0x890eba68\n      gt\n      tag_12\n      jumpi\n      dup1\n      0x890eba68\n      eq\n      tag_7\n      jumpi\n      dup1\n      0xa6dc7563\n      eq\n      tag_8\n      jumpi\n      dup1\n      0xaeb6f292\n      eq\n      tag_9\n      jumpi\n      dup1\n      0xb69ef8a8\n      eq\n      tag_10\n      jumpi\n      dup1\n      0xcb12b48f\n      eq\n      tag_11\n      jumpi\n      jump(tag_2)\n    tag_12:\n      dup1\n      0x15d4266c\n      eq\n      tag_3\n      jumpi\n      dup1\n      0x3b9eac4b\n      eq\n      tag_4\n      jumpi\n      dup1\n      0x3f346102\n      eq\n      tag_5\n      jumpi\n      dup1\n      0x85295877\n      eq\n      tag_6\n      jumpi\n    tag_2:\n      0x00\n      dup1\n      revert\n        /* \"Study/Type.sol\":173:194  uint public  num2 = 3 */\n    tag_3:\n      tag_13\n      tag_14\n      jump\t// in\n    tag_13:\n      mload(0x40)\n      tag_15\n      swap2\n      swap1\n      tag_16\n      jump\t// in\n    tag_15:\n      mload(0x40)\n      dup1\n      swap2\n      sub\n      swap1\n      return\n        /* \"Study/Type.sol\":109:130  uint public  num1 = 2 */\n    tag_4:\n      tag_17\n      tag_18\n      jump\t// in\n    tag_17:\n      mload(0x40)\n      tag_19\n      swap2\n      swap1\n      tag_16\n      jump\t// in\n    tag_19:\n      mload(0x40)\n      dup1\n      swap2\n      sub\n      swap1\n      return\n        /* \"Study/Type.sol\":466:505  bytes32 public _byte32 = \"MiniSolidity\" */\n    tag_5:\n      tag_20\n      tag_21\n      jump\t// in\n    tag_20:\n      mload(0x40)\n      tag_22\n      swap2\n      swap1\n      tag_23\n      jump\t// in\n    tag_22:\n      mload(0x40)\n      dup1\n      swap2\n      sub\n      swap1\n      return\n        /* \"Study/Type.sol\":326:368  address payable public other = payable(me) */\n    tag_6:\n      tag_24\n      tag_25\n      jump\t// in\n    tag_24:\n      mload(0x40)\n      tag_26\n      swap2\n      swap1\n      tag_27\n      jump\t// in\n    tag_26:\n      mload(0x40)\n      dup1\n      swap2\n      sub\n      swap1\n      return\n        /* \"Study/Type.sol\":201:232  bool public  flag = num1 > num2 */\n    tag_7:\n      tag_28\n      tag_29\n      jump\t// in\n    tag_28:\n      mload(0x40)\n      tag_30\n      swap2\n      swap1\n      tag_31\n      jump\t// in\n    tag_30:\n      mload(0x40)\n      dup1\n      swap2\n      sub\n      swap1\n      return\n        /* \"Study/Type.sol\":137:166  uint public  num1_1 = num1**3 */\n    tag_8:\n      tag_32\n      tag_33\n      jump\t// in\n    tag_32:\n      mload(0x40)\n      tag_34\n      swap2\n      swap1\n      tag_16\n      jump\t// in\n    tag_34:\n      mload(0x40)\n      dup1\n      swap2\n      sub\n      swap1\n      return\n        /* \"Study/Type.sol\":513:545  bytes1 public _byte = _byte32[0] */\n    tag_9:\n      tag_35\n      tag_36\n      jump\t// in\n    tag_35:\n      mload(0x40)\n      tag_37\n      swap2\n      swap1\n      tag_38\n      jump\t// in\n    tag_37:\n      mload(0x40)\n      dup1\n      swap2\n      sub\n      swap1\n      return\n        /* \"Study/Type.sol\":404:439  uint public balance = other.balance */\n    tag_10:\n      tag_39\n      tag_40\n      jump\t// in\n    tag_39:\n      mload(0x40)\n      tag_41\n      swap2\n      swap1\n      tag_16\n      jump\t// in\n    tag_41:\n      mload(0x40)\n      dup1\n      swap2\n      sub\n      swap1\n      return\n        /* \"Study/Type.sol\":256:319  address public  me = 0x5B38Da6a701c568545dCfcB03FcB875f56beddC4 */\n    tag_11:\n      tag_42\n      tag_43\n      jump\t// in\n    tag_42:\n      mload(0x40)\n      tag_44\n      swap2\n      swap1\n      tag_45\n      jump\t// in\n    tag_44:\n      mload(0x40)\n      dup1\n      swap2\n      sub\n      swap1\n      return\n        /* \"Study/Type.sol\":173:194  uint public  num2 = 3 */\n    tag_14:\n      sload(0x02)\n      dup2\n      jump\t// out\n        /* \"Study/Type.sol\":109:130  uint public  num1 = 2 */\n    tag_18:\n      sload(0x00)\n      dup2\n      jump\t// out\n        /* \"Study/Type.sol\":466:505  bytes32 public _byte32 = \"MiniSolidity\" */\n    tag_21:\n      sload(0x06)\n      dup2\n      jump\t// out\n        /* \"Study/Type.sol\":326:368  address payable public other = payable(me) */\n    tag_25:\n      0x04\n      0x00\n      swap1\n      sload\n      swap1\n      0x0100\n      exp\n      swap1\n      div\n      0xffffffffffffffffffffffffffffffffffffffff\n      and\n      dup2\n      jump\t// out\n        /* \"Study/Type.sol\":201:232  bool public  flag = num1 > num2 */\n    tag_29:\n      0x03\n      0x00\n      swap1\n      sload\n      swap1\n      0x0100\n      exp\n      swap1\n      div\n      0xff\n      and\n      dup2\n      jump\t// out\n        /* \"Study/Type.sol\":137:166  uint public  num1_1 = num1**3 */\n    tag_33:\n      sload(0x01)\n      dup2\n      jump\t// out\n        /* \"Study/Type.sol\":513:545  bytes1 public _byte = _byte32[0] */\n    tag_36:\n      0x07\n      0x00\n      swap1\n      sload\n      swap1\n      0x0100\n      exp\n      swap1\n      div\n      0xf8\n      shl\n      dup2\n      jump\t// out\n        /* \"Study/Type.sol\":404:439  uint public balance = other.balance */\n    tag_40:\n      sload(0x05)\n      dup2\n      jump\t// out\n        /* \"Study/Type.sol\":256:319  address public  me = 0x5B38Da6a701c568545dCfcB03FcB875f56beddC4 */\n    tag_43:\n      0x03\n      0x01\n      swap1\n      sload\n      swap1\n      0x0100\n      exp\n      swap1\n      div\n      0xffffffffffffffffffffffffffffffffffffffff\n      and\n      dup2\n      jump\t// out\n        /* \"#utility.yul\":7:84   */\n    tag_46:\n        /* \"#utility.yul\":44:51   */\n      0x00\n        /* \"#utility.yul\":73:78   */\n      dup2\n        /* \"#utility.yul\":62:78   */\n      swap1\n      pop\n        /* \"#utility.yul\":7:84   */\n      swap2\n      swap1\n      pop\n      jump\t// out\n        /* \"#utility.yul\":90:208   */\n    tag_47:\n        /* \"#utility.yul\":177:201   */\n      tag_62\n        /* \"#utility.yul\":195:200   */\n      dup2\n        /* \"#utility.yul\":177:201   */\n      tag_46\n      jump\t// in\n    tag_62:\n        /* \"#utility.yul\":172:175   */\n      dup3\n        /* \"#utility.yul\":165:202   */\n      mstore\n        /* \"#utility.yul\":90:208   */\n      pop\n      pop\n      jump\t// out\n        /* \"#utility.yul\":214:436   */\n    tag_16:\n        /* \"#utility.yul\":307:311   */\n      0x00\n        /* \"#utility.yul\":345:347   */\n      0x20\n        /* \"#utility.yul\":334:343   */\n      dup3\n        /* \"#utility.yul\":330:348   */\n      add\n        /* \"#utility.yul\":322:348   */\n      swap1\n      pop\n        /* \"#utility.yul\":358:429   */\n      tag_64\n        /* \"#utility.yul\":426:427   */\n      0x00\n        /* \"#utility.yul\":415:424   */\n      dup4\n        /* \"#utility.yul\":411:428   */\n      add\n        /* \"#utility.yul\":402:408   */\n      dup5\n        /* \"#utility.yul\":358:429   */\n      tag_47\n      jump\t// in\n    tag_64:\n        /* \"#utility.yul\":214:436   */\n      swap3\n      swap2\n      pop\n      pop\n      jump\t// out\n        /* \"#utility.yul\":442:519   */\n    tag_48:\n        /* \"#utility.yul\":479:486   */\n      0x00\n        /* \"#utility.yul\":508:513   */\n      dup2\n        /* \"#utility.yul\":497:513   */\n      swap1\n      pop\n        /* \"#utility.yul\":442:519   */\n      swap2\n      swap1\n      pop\n      jump\t// out\n        /* \"#utility.yul\":525:643   */\n    tag_49:\n        /* \"#utility.yul\":612:636   */\n      tag_67\n        /* \"#utility.yul\":630:635   */\n      dup2\n        /* \"#utility.yul\":612:636   */\n      tag_48\n      jump\t// in\n    tag_67:\n        /* \"#utility.yul\":607:610   */\n      dup3\n        /* \"#utility.yul\":600:637   */\n      mstore\n        /* \"#utility.yul\":525:643   */\n      pop\n      pop\n      jump\t// out\n        /* \"#utility.yul\":649:871   */\n    tag_23:\n        /* \"#utility.yul\":742:746   */\n      0x00\n        /* \"#utility.yul\":780:782   */\n      0x20\n        /* \"#utility.yul\":769:778   */\n      dup3\n        /* \"#utility.yul\":765:783   */\n      add\n        /* \"#utility.yul\":757:783   */\n      swap1\n      pop\n        /* \"#utility.yul\":793:864   */\n      tag_69\n        /* \"#utility.yul\":861:862   */\n      0x00\n        /* \"#utility.yul\":850:859   */\n      dup4\n        /* \"#utility.yul\":846:863   */\n      add\n        /* \"#utility.yul\":837:843   */\n      dup5\n        /* \"#utility.yul\":793:864   */\n      tag_49\n      jump\t// in\n    tag_69:\n        /* \"#utility.yul\":649:871   */\n      swap3\n      swap2\n      pop\n      pop\n      jump\t// out\n        /* \"#utility.yul\":877:1003   */\n    tag_50:\n        /* \"#utility.yul\":914:921   */\n      0x00\n        /* \"#utility.yul\":954:996   */\n      0xffffffffffffffffffffffffffffffffffffffff\n        /* \"#utility.yul\":947:952   */\n      dup3\n        /* \"#utility.yul\":943:997   */\n      and\n        /* \"#utility.yul\":932:997   */\n      swap1\n      pop\n        /* \"#utility.yul\":877:1003   */\n      swap2\n      swap1\n      pop\n      jump\t// out\n        /* \"#utility.yul\":1009:1113   */\n    tag_51:\n        /* \"#utility.yul\":1054:1061   */\n      0x00\n        /* \"#utility.yul\":1083:1107   */\n      tag_72\n        /* \"#utility.yul\":1101:1106   */\n      dup3\n        /* \"#utility.yul\":1083:1107   */\n      tag_50\n      jump\t// in\n    tag_72:\n        /* \"#utility.yul\":1072:1107   */\n      swap1\n      pop\n        /* \"#utility.yul\":1009:1113   */\n      swap2\n      swap1\n      pop\n      jump\t// out\n        /* \"#utility.yul\":1119:1261   */\n    tag_52:\n        /* \"#utility.yul\":1222:1254   */\n      tag_74\n        /* \"#utility.yul\":1248:1253   */\n      dup2\n        /* \"#utility.yul\":1222:1254   */\n      tag_51\n      jump\t// in\n    tag_74:\n        /* \"#utility.yul\":1217:1220   */\n      dup3\n        /* \"#utility.yul\":1210:1255   */\n      mstore\n        /* \"#utility.yul\":1119:1261   */\n      pop\n      pop\n      jump\t// out\n        /* \"#utility.yul\":1267:1521   */\n    tag_27:\n        /* \"#utility.yul\":1376:1380   */\n      0x00\n        /* \"#utility.yul\":1414:1416   */\n      0x20\n        /* \"#utility.yul\":1403:1412   */\n      dup3\n        /* \"#utility.yul\":1399:1417   */\n      add\n        /* \"#utility.yul\":1391:1417   */\n      swap1\n      pop\n        /* \"#utility.yul\":1427:1514   */\n      tag_76\n        /* \"#utility.yul\":1511:1512   */\n      0x00\n        /* \"#utility.yul\":1500:1509   */\n      dup4\n        /* \"#utility.yul\":1496:1513   */\n      add\n        /* \"#utility.yul\":1487:1493   */\n      dup5\n        /* \"#utility.yul\":1427:1514   */\n      tag_52\n      jump\t// in\n    tag_76:\n        /* \"#utility.yul\":1267:1521   */\n      swap3\n      swap2\n      pop\n      pop\n      jump\t// out\n        /* \"#utility.yul\":1527:1617   */\n    tag_53:\n        /* \"#utility.yul\":1561:1568   */\n      0x00\n        /* \"#utility.yul\":1604:1609   */\n      dup2\n        /* \"#utility.yul\":1597:1610   */\n      iszero\n        /* \"#utility.yul\":1590:1611   */\n      iszero\n        /* \"#utility.yul\":1579:1611   */\n      swap1\n      pop\n        /* \"#utility.yul\":1527:1617   */\n      swap2\n      swap1\n      pop\n      jump\t// out\n        /* \"#utility.yul\":1623:1732   */\n    tag_54:\n        /* \"#utility.yul\":1704:1725   */\n      tag_79\n        /* \"#utility.yul\":1719:1724   */\n      dup2\n        /* \"#utility.yul\":1704:1725   */\n      tag_53\n      jump\t// in\n    tag_79:\n        /* \"#utility.yul\":1699:1702   */\n      dup3\n        /* \"#utility.yul\":1692:1726   */\n      mstore\n        /* \"#utility.yul\":1623:1732   */\n      pop\n      pop\n      jump\t// out\n        /* \"#utility.yul\":1738:1948   */\n    tag_31:\n        /* \"#utility.yul\":1825:1829   */\n      0x00\n        /* \"#utility.yul\":1863:1865   */\n      0x20\n        /* \"#utility.yul\":1852:1861   */\n      dup3\n        /* \"#utility.yul\":1848:1866   */\n      add\n        /* \"#utility.yul\":1840:1866   */\n      swap1\n      pop\n        /* \"#utility.yul\":1876:1941   */\n      tag_81\n        /* \"#utility.yul\":1938:1939   */\n      0x00\n        /* \"#utility.yul\":1927:1936   */\n      dup4\n        /* \"#utility.yul\":1923:1940   */\n      add\n        /* \"#utility.yul\":1914:1920   */\n      dup5\n        /* \"#utility.yul\":1876:1941   */\n      tag_54\n      jump\t// in\n    tag_81:\n        /* \"#utility.yul\":1738:1948   */\n      swap3\n      swap2\n      pop\n      pop\n      jump\t// out\n        /* \"#utility.yul\":1954:2103   */\n    tag_55:\n        /* \"#utility.yul\":1990:1997   */\n      0x00\n        /* \"#utility.yul\":2030:2096   */\n      0xff00000000000000000000000000000000000000000000000000000000000000\n        /* \"#utility.yul\":2023:2028   */\n      dup3\n        /* \"#utility.yul\":2019:2097   */\n      and\n        /* \"#utility.yul\":2008:2097   */\n      swap1\n      pop\n        /* \"#utility.yul\":1954:2103   */\n      swap2\n      swap1\n      pop\n      jump\t// out\n        /* \"#utility.yul\":2109:2224   */\n    tag_56:\n        /* \"#utility.yul\":2194:2217   */\n      tag_84\n        /* \"#utility.yul\":2211:2216   */\n      dup2\n        /* \"#utility.yul\":2194:2217   */\n      tag_55\n      jump\t// in\n    tag_84:\n        /* \"#utility.yul\":2189:2192   */\n      dup3\n        /* \"#utility.yul\":2182:2218   */\n      mstore\n        /* \"#utility.yul\":2109:2224   */\n      pop\n      pop\n      jump\t// out\n        /* \"#utility.yul\":2230:2448   */\n    tag_38:\n        /* \"#utility.yul\":2321:2325   */\n      0x00\n        /* \"#utility.yul\":2359:2361   */\n      0x20\n        /* \"#utility.yul\":2348:2357   */\n      dup3\n        /* \"#utility.yul\":2344:2362   */\n      add\n        /* \"#utility.yul\":2336:2362   */\n      swap1\n      pop\n        /* \"#utility.yul\":2372:2441   */\n      tag_86\n        /* \"#utility.yul\":2438:2439   */\n      0x00\n        /* \"#utility.yul\":2427:2436   */\n      dup4\n        /* \"#utility.yul\":2423:2440   */\n      add\n        /* \"#utility.yul\":2414:2420   */\n      dup5\n        /* \"#utility.yul\":2372:2441   */\n      tag_56\n      jump\t// in\n    tag_86:\n        /* \"#utility.yul\":2230:2448   */\n      swap3\n      swap2\n      pop\n      pop\n      jump\t// out\n        /* \"#utility.yul\":2454:2550   */\n    tag_57:\n        /* \"#utility.yul\":2491:2498   */\n      0x00\n        /* \"#utility.yul\":2520:2544   */\n      tag_88\n        /* \"#utility.yul\":2538:2543   */\n      dup3\n        /* \"#utility.yul\":2520:2544   */\n      tag_50\n      jump\t// in\n    tag_88:\n        /* \"#utility.yul\":2509:2544   */\n      swap1\n      pop\n        /* \"#utility.yul\":2454:2550   */\n      swap2\n      swap1\n      pop\n      jump\t// out\n        /* \"#utility.yul\":2556:2674   */\n    tag_58:\n        /* \"#utility.yul\":2643:2667   */\n      tag_90\n        /* \"#utility.yul\":2661:2666   */\n      dup2\n        /* \"#utility.yul\":2643:2667   */\n      tag_57\n      jump\t// in\n    tag_90:\n        /* \"#utility.yul\":2638:2641   */\n      dup3\n        /* \"#utility.yul\":2631:2668   */\n      mstore\n        /* \"#utility.yul\":2556:2674   */\n      pop\n      pop\n      jump\t// out\n        /* \"#utility.yul\":2680:2902   */\n    tag_45:\n        /* \"#utility.yul\":2773:2777   */\n      0x00\n        /* \"#utility.yul\":2811:2813   */\n      0x20\n        /* \"#utility.yul\":2800:2809   */\n      dup3\n        /* \"#utility.yul\":2796:2814   */\n      add\n        /* \"#utility.yul\":2788:2814   */\n      swap1\n      pop\n        /* \"#utility.yul\":2824:2895   */\n      tag_92\n        /* \"#utility.yul\":2892:2893   */\n      0x00\n        /* \"#utility.yul\":2881:2890   */\n      dup4\n        /* \"#utility.yul\":2877:2894   */\n      add\n        /* \"#utility.yul\":2868:2874   */\n      dup5\n        /* \"#utility.yul\":2824:2895   */\n      tag_58\n      jump\t// in\n    tag_92:\n        /* \"#utility.yul\":2680:2902   */\n      swap3\n      swap2\n      pop\n      pop\n      jump\t// out\n\n    auxdata: 0xa2646970667358221220a62d6c71a5124ba2d68876912ce2b5e2fc0df3e66d9ff89a7d9fec465d25dfb664736f6c63430008120033\n}\n",
				"bytecode": {
					"linkReferences": {},
					"object": "6080604052600260005560036000546100189190610318565b600155600360025560025460005411600360006101000a81548160ff021916908315150217905550735b38da6a701c568545dcfcb03fcb875f56beddc4600360016101000a81548173ffffffffffffffffffffffffffffffffffffffff021916908373ffffffffffffffffffffffffffffffffffffffff160217905550600360019054906101000a900473ffffffffffffffffffffffffffffffffffffffff16600460006101000a81548173ffffffffffffffffffffffffffffffffffffffff021916908373ffffffffffffffffffffffffffffffffffffffff160217905550600460009054906101000a900473ffffffffffffffffffffffffffffffffffffffff1673ffffffffffffffffffffffffffffffffffffffff16316005557f4d696e69536f6c6964697479000000000000000000000000000000000000000060065560065460006020811061016f5761016e610363565b5b1a60f81b600760006101000a81548160ff021916908360f81c021790555034801561019957600080fd5b50610392565b7f4e487b7100000000000000000000000000000000000000000000000000000000600052601160045260246000fd5b60008160011c9050919050565b6000808291508390505b6001851115610225578086048111156102015761020061019f565b5b60018516156102105780820291505b808102905061021e856101ce565b94506101e5565b94509492505050565b60008261023e57600190506102fa565b8161024c57600090506102fa565b8160018114610262576002811461026c5761029b565b60019150506102fa565b60ff84111561027e5761027d61019f565b5b8360020a9150848211156102955761029461019f565b5b506102fa565b5060208310610133831016604e8410600b84101617156102d05782820a9050838111156102cb576102ca61019f565b5b6102fa565b6102dd84848460016101db565b925090508184048111156102f4576102f361019f565b5b81810290505b9392505050565b6000819050919050565b600060ff82169050919050565b600061032382610301565b915061032e8361030b565b925061035b7fffffffffffffffffffffffffffffffffffffffffffffffffffffffffffffffff848461022e565b905092915050565b7f4e487b7100000000000000000000000000000000000000000000000000000000600052603260045260246000fd5b6103f8806103a16000396000f3fe608060405234801561001057600080fd5b50600436106100935760003560e01c8063890eba6811610066578063890eba6814610110578063a6dc75631461012e578063aeb6f2921461014c578063b69ef8a81461016a578063cb12b48f1461018857610093565b806315d4266c146100985780633b9eac4b146100b65780633f346102146100d457806385295877146100f2575b600080fd5b6100a06101a6565b6040516100ad919061024f565b60405180910390f35b6100be6101ac565b6040516100cb919061024f565b60405180910390f35b6100dc6101b2565b6040516100e99190610283565b60405180910390f35b6100fa6101b8565b60405161010791906102df565b60405180910390f35b6101186101de565b6040516101259190610315565b60405180910390f35b6101366101f1565b604051610143919061024f565b60405180910390f35b6101546101f7565b604051610161919061036b565b60405180910390f35b61017261020a565b60405161017f919061024f565b60405180910390f35b610190610210565b60405161019d91906103a7565b60405180910390f35b60025481565b60005481565b60065481565b600460009054906101000a900473ffffffffffffffffffffffffffffffffffffffff1681565b600360009054906101000a900460ff1681565b60015481565b600760009054906101000a900460f81b81565b60055481565b600360019054906101000a900473ffffffffffffffffffffffffffffffffffffffff1681565b6000819050919050565b61024981610236565b82525050565b60006020820190506102646000830184610240565b92915050565b6000819050919050565b61027d8161026a565b82525050565b60006020820190506102986000830184610274565b92915050565b600073ffffffffffffffffffffffffffffffffffffffff82169050919050565b60006102c98261029e565b9050919050565b6102d9816102be565b82525050565b60006020820190506102f460008301846102d0565b92915050565b60008115159050919050565b61030f816102fa565b82525050565b600060208201905061032a6000830184610306565b92915050565b60007fff0000000000000000000000000000000000000000000000000000000000000082169050919050565b61036581610330565b82525050565b6000602082019050610380600083018461035c565b92915050565b60006103918261029e565b9050919050565b6103a181610386565b82525050565b60006020820190506103bc6000830184610398565b9291505056fea2646970667358221220a62d6c71a5124ba2d68876912ce2b5e2fc0df3e66d9ff89a7d9fec465d25dfb664736f6c63430008120033",
					"opcodes": "PUSH1 0x80 PUSH1 0x40 MSTORE PUSH1 0x2 PUSH1 0x0 SSTORE PUSH1 0x3 PUSH1 0x0 SLOAD PUSH2 0x18 SWAP2 SWAP1 PUSH2 0x318 JUMP JUMPDEST PUSH1 0x1 SSTORE PUSH1 0x3 PUSH1 0x2 SSTORE PUSH1 0x2 SLOAD PUSH1 0x0 SLOAD GT PUSH1 0x3 PUSH1 0x0 PUSH2 0x100 EXP DUP2 SLOAD DUP2 PUSH1 0xFF MUL NOT AND SWAP1 DUP4 ISZERO ISZERO MUL OR SWAP1 SSTORE POP PUSH20 0x5B38DA6A701C568545DCFCB03FCB875F56BEDDC4 PUSH1 0x3 PUSH1 0x1 PUSH2 0x100 EXP DUP2 SLOAD DUP2 PUSH20 0xFFFFFFFFFFFFFFFFFFFFFFFFFFFFFFFFFFFFFFFF MUL NOT AND SWAP1 DUP4 PUSH20 0xFFFFFFFFFFFFFFFFFFFFFFFFFFFFFFFFFFFFFFFF AND MUL OR SWAP1 SSTORE POP PUSH1 0x3 PUSH1 0x1 SWAP1 SLOAD SWAP1 PUSH2 0x100 EXP SWAP1 DIV PUSH20 0xFFFFFFFFFFFFFFFFFFFFFFFFFFFFFFFFFFFFFFFF AND PUSH1 0x4 PUSH1 0x0 PUSH2 0x100 EXP DUP2 SLOAD DUP2 PUSH20 0xFFFFFFFFFFFFFFFFFFFFFFFFFFFFFFFFFFFFFFFF MUL NOT AND SWAP1 DUP4 PUSH20 0xFFFFFFFFFFFFFFFFFFFFFFFFFFFFFFFFFFFFFFFF AND MUL OR SWAP1 SSTORE POP PUSH1 0x4 PUSH1 0x0 SWAP1 SLOAD SWAP1 PUSH2 0x100 EXP SWAP1 DIV PUSH20 0xFFFFFFFFFFFFFFFFFFFFFFFFFFFFFFFFFFFFFFFF AND PUSH20 0xFFFFFFFFFFFFFFFFFFFFFFFFFFFFFFFFFFFFFFFF AND BALANCE PUSH1 0x5 SSTORE PUSH32 0x4D696E69536F6C69646974790000000000000000000000000000000000000000 PUSH1 0x6 SSTORE PUSH1 0x6 SLOAD PUSH1 0x0 PUSH1 0x20 DUP2 LT PUSH2 0x16F JUMPI PUSH2 0x16E PUSH2 0x363 JUMP JUMPDEST JUMPDEST BYTE PUSH1 0xF8 SHL PUSH1 0x7 PUSH1 0x0 PUSH2 0x100 EXP DUP2 SLOAD DUP2 PUSH1 0xFF MUL NOT AND SWAP1 DUP4 PUSH1 0xF8 SHR MUL OR SWAP1 SSTORE POP CALLVALUE DUP1 ISZERO PUSH2 0x199 JUMPI PUSH1 0x0 DUP1 REVERT JUMPDEST POP PUSH2 0x392 JUMP JUMPDEST PUSH32 0x4E487B7100000000000000000000000000000000000000000000000000000000 PUSH1 0x0 MSTORE PUSH1 0x11 PUSH1 0x4 MSTORE PUSH1 0x24 PUSH1 0x0 REVERT JUMPDEST PUSH1 0x0 DUP2 PUSH1 0x1 SHR SWAP1 POP SWAP2 SWAP1 POP JUMP JUMPDEST PUSH1 0x0 DUP1 DUP3 SWAP2 POP DUP4 SWAP1 POP JUMPDEST PUSH1 0x1 DUP6 GT ISZERO PUSH2 0x225 JUMPI DUP1 DUP7 DIV DUP2 GT ISZERO PUSH2 0x201 JUMPI PUSH2 0x200 PUSH2 0x19F JUMP JUMPDEST JUMPDEST PUSH1 0x1 DUP6 AND ISZERO PUSH2 0x210 JUMPI DUP1 DUP3 MUL SWAP2 POP JUMPDEST DUP1 DUP2 MUL SWAP1 POP PUSH2 0x21E DUP6 PUSH2 0x1CE JUMP JUMPDEST SWAP5 POP PUSH2 0x1E5 JUMP JUMPDEST SWAP5 POP SWAP5 SWAP3 POP POP POP JUMP JUMPDEST PUSH1 0x0 DUP3 PUSH2 0x23E JUMPI PUSH1 0x1 SWAP1 POP PUSH2 0x2FA JUMP JUMPDEST DUP2 PUSH2 0x24C JUMPI PUSH1 0x0 SWAP1 POP PUSH2 0x2FA JUMP JUMPDEST DUP2 PUSH1 0x1 DUP2 EQ PUSH2 0x262 JUMPI PUSH1 0x2 DUP2 EQ PUSH2 0x26C JUMPI PUSH2 0x29B JUMP JUMPDEST PUSH1 0x1 SWAP2 POP POP PUSH2 0x2FA JUMP JUMPDEST PUSH1 0xFF DUP5 GT ISZERO PUSH2 0x27E JUMPI PUSH2 0x27D PUSH2 0x19F JUMP JUMPDEST JUMPDEST DUP4 PUSH1 0x2 EXP SWAP2 POP DUP5 DUP3 GT ISZERO PUSH2 0x295 JUMPI PUSH2 0x294 PUSH2 0x19F JUMP JUMPDEST JUMPDEST POP PUSH2 0x2FA JUMP JUMPDEST POP PUSH1 0x20 DUP4 LT PUSH2 0x133 DUP4 LT AND PUSH1 0x4E DUP5 LT PUSH1 0xB DUP5 LT AND OR ISZERO PUSH2 0x2D0 JUMPI DUP3 DUP3 EXP SWAP1 POP DUP4 DUP2 GT ISZERO PUSH2 0x2CB JUMPI PUSH2 0x2CA PUSH2 0x19F JUMP JUMPDEST JUMPDEST PUSH2 0x2FA JUMP JUMPDEST PUSH2 0x2DD DUP5 DUP5 DUP5 PUSH1 0x1 PUSH2 0x1DB JUMP JUMPDEST SWAP3 POP SWAP1 POP DUP2 DUP5 DIV DUP2 GT ISZERO PUSH2 0x2F4 JUMPI PUSH2 0x2F3 PUSH2 0x19F JUMP JUMPDEST JUMPDEST DUP2 DUP2 MUL SWAP1 POP JUMPDEST SWAP4 SWAP3 POP POP POP JUMP JUMPDEST PUSH1 0x0 DUP2 SWAP1 POP SWAP2 SWAP1 POP JUMP JUMPDEST PUSH1 0x0 PUSH1 0xFF DUP3 AND SWAP1 POP SWAP2 SWAP1 POP JUMP JUMPDEST PUSH1 0x0 PUSH2 0x323 DUP3 PUSH2 0x301 JUMP JUMPDEST SWAP2 POP PUSH2 0x32E DUP4 PUSH2 0x30B JUMP JUMPDEST SWAP3 POP PUSH2 0x35B PUSH32 0xFFFFFFFFFFFFFFFFFFFFFFFFFFFFFFFFFFFFFFFFFFFFFFFFFFFFFFFFFFFFFFFF DUP5 DUP5 PUSH2 0x22E JUMP JUMPDEST SWAP1 POP SWAP3 SWAP2 POP POP JUMP JUMPDEST PUSH32 0x4E487B7100000000000000000000000000000000000000000000000000000000 PUSH1 0x0 MSTORE PUSH1 0x32 PUSH1 0x4 MSTORE PUSH1 0x24 PUSH1 0x0 REVERT JUMPDEST PUSH2 0x3F8 DUP1 PUSH2 0x3A1 PUSH1 0x0 CODECOPY PUSH1 0x0 RETURN INVALID PUSH1 0x80 PUSH1 0x40 MSTORE CALLVALUE DUP1 ISZERO PUSH2 0x10 JUMPI PUSH1 0x0 DUP1 REVERT JUMPDEST POP PUSH1 0x4 CALLDATASIZE LT PUSH2 0x93 JUMPI PUSH1 0x0 CALLDATALOAD PUSH1 0xE0 SHR DUP1 PUSH4 0x890EBA68 GT PUSH2 0x66 JUMPI DUP1 PUSH4 0x890EBA68 EQ PUSH2 0x110 JUMPI DUP1 PUSH4 0xA6DC7563 EQ PUSH2 0x12E JUMPI DUP1 PUSH4 0xAEB6F292 EQ PUSH2 0x14C JUMPI DUP1 PUSH4 0xB69EF8A8 EQ PUSH2 0x16A JUMPI DUP1 PUSH4 0xCB12B48F EQ PUSH2 0x188 JUMPI PUSH2 0x93 JUMP JUMPDEST DUP1 PUSH4 0x15D4266C EQ PUSH2 0x98 JUMPI DUP1 PUSH4 0x3B9EAC4B EQ PUSH2 0xB6 JUMPI DUP1 PUSH4 0x3F346102 EQ PUSH2 0xD4 JUMPI DUP1 PUSH4 0x85295877 EQ PUSH2 0xF2 JUMPI JUMPDEST PUSH1 0x0 DUP1 REVERT JUMPDEST PUSH2 0xA0 PUSH2 0x1A6 JUMP JUMPDEST PUSH1 0x40 MLOAD PUSH2 0xAD SWAP2 SWAP1 PUSH2 0x24F JUMP JUMPDEST PUSH1 0x40 MLOAD DUP1 SWAP2 SUB SWAP1 RETURN JUMPDEST PUSH2 0xBE PUSH2 0x1AC JUMP JUMPDEST PUSH1 0x40 MLOAD PUSH2 0xCB SWAP2 SWAP1 PUSH2 0x24F JUMP JUMPDEST PUSH1 0x40 MLOAD DUP1 SWAP2 SUB SWAP1 RETURN JUMPDEST PUSH2 0xDC PUSH2 0x1B2 JUMP JUMPDEST PUSH1 0x40 MLOAD PUSH2 0xE9 SWAP2 SWAP1 PUSH2 0x283 JUMP JUMPDEST PUSH1 0x40 MLOAD DUP1 SWAP2 SUB SWAP1 RETURN JUMPDEST PUSH2 0xFA PUSH2 0x1B8 JUMP JUMPDEST PUSH1 0x40 MLOAD PUSH2 0x107 SWAP2 SWAP1 PUSH2 0x2DF JUMP JUMPDEST PUSH1 0x40 MLOAD DUP1 SWAP2 SUB SWAP1 RETURN JUMPDEST PUSH2 0x118 PUSH2 0x1DE JUMP JUMPDEST PUSH1 0x40 MLOAD PUSH2 0x125 SWAP2 SWAP1 PUSH2 0x315 JUMP JUMPDEST PUSH1 0x40 MLOAD DUP1 SWAP2 SUB SWAP1 RETURN JUMPDEST PUSH2 0x136 PUSH2 0x1F1 JUMP JUMPDEST PUSH1 0x40 MLOAD PUSH2 0x143 SWAP2 SWAP1 PUSH2 0x24F JUMP JUMPDEST PUSH1 0x40 MLOAD DUP1 SWAP2 SUB SWAP1 RETURN JUMPDEST PUSH2 0x154 PUSH2 0x1F7 JUMP JUMPDEST PUSH1 0x40 MLOAD PUSH2 0x161 SWAP2 SWAP1 PUSH2 0x36B JUMP JUMPDEST PUSH1 0x40 MLOAD DUP1 SWAP2 SUB SWAP1 RETURN JUMPDEST PUSH2 0x172 PUSH2 0x20A JUMP JUMPDEST PUSH1 0x40 MLOAD PUSH2 0x17F SWAP2 SWAP1 PUSH2 0x24F JUMP JUMPDEST PUSH1 0x40 MLOAD DUP1 SWAP2 SUB SWAP1 RETURN JUMPDEST PUSH2 0x190 PUSH2 0x210 JUMP JUMPDEST PUSH1 0x40 MLOAD PUSH2 0x19D SWAP2 SWAP1 PUSH2 0x3A7 JUMP JUMPDEST PUSH1 0x40 MLOAD DUP1 SWAP2 SUB SWAP1 RETURN JUMPDEST PUSH1 0x2 SLOAD DUP2 JUMP JUMPDEST PUSH1 0x0 SLOAD DUP2 JUMP JUMPDEST PUSH1 0x6 SLOAD DUP2 JUMP JUMPDEST PUSH1 0x4 PUSH1 0x0 SWAP1 SLOAD SWAP1 PUSH2 0x100 EXP SWAP1 DIV PUSH20 0xFFFFFFFFFFFFFFFFFFFFFFFFFFFFFFFFFFFFFFFF AND DUP2 JUMP JUMPDEST PUSH1 0x3 PUSH1 0x0 SWAP1 SLOAD SWAP1 PUSH2 0x100 EXP SWAP1 DIV PUSH1 0xFF AND DUP2 JUMP JUMPDEST PUSH1 0x1 SLOAD DUP2 JUMP JUMPDEST PUSH1 0x7 PUSH1 0x0 SWAP1 SLOAD SWAP1 PUSH2 0x100 EXP SWAP1 DIV PUSH1 0xF8 SHL DUP2 JUMP JUMPDEST PUSH1 0x5 SLOAD DUP2 JUMP JUMPDEST PUSH1 0x3 PUSH1 0x1 SWAP1 SLOAD SWAP1 PUSH2 0x100 EXP SWAP1 DIV PUSH20 0xFFFFFFFFFFFFFFFFFFFFFFFFFFFFFFFFFFFFFFFF AND DUP2 JUMP JUMPDEST PUSH1 0x0 DUP2 SWAP1 POP SWAP2 SWAP1 POP JUMP JUMPDEST PUSH2 0x249 DUP2 PUSH2 0x236 JUMP JUMPDEST DUP3 MSTORE POP POP JUMP JUMPDEST PUSH1 0x0 PUSH1 0x20 DUP3 ADD SWAP1 POP PUSH2 0x264 PUSH1 0x0 DUP4 ADD DUP5 PUSH2 0x240 JUMP JUMPDEST SWAP3 SWAP2 POP POP JUMP JUMPDEST PUSH1 0x0 DUP2 SWAP1 POP SWAP2 SWAP1 POP JUMP JUMPDEST PUSH2 0x27D DUP2 PUSH2 0x26A JUMP JUMPDEST DUP3 MSTORE POP POP JUMP JUMPDEST PUSH1 0x0 PUSH1 0x20 DUP3 ADD SWAP1 POP PUSH2 0x298 PUSH1 0x0 DUP4 ADD DUP5 PUSH2 0x274 JUMP JUMPDEST SWAP3 SWAP2 POP POP JUMP JUMPDEST PUSH1 0x0 PUSH20 0xFFFFFFFFFFFFFFFFFFFFFFFFFFFFFFFFFFFFFFFF DUP3 AND SWAP1 POP SWAP2 SWAP1 POP JUMP JUMPDEST PUSH1 0x0 PUSH2 0x2C9 DUP3 PUSH2 0x29E JUMP JUMPDEST SWAP1 POP SWAP2 SWAP1 POP JUMP JUMPDEST PUSH2 0x2D9 DUP2 PUSH2 0x2BE JUMP JUMPDEST DUP3 MSTORE POP POP JUMP JUMPDEST PUSH1 0x0 PUSH1 0x20 DUP3 ADD SWAP1 POP PUSH2 0x2F4 PUSH1 0x0 DUP4 ADD DUP5 PUSH2 0x2D0 JUMP JUMPDEST SWAP3 SWAP2 POP POP JUMP JUMPDEST PUSH1 0x0 DUP2 ISZERO ISZERO SWAP1 POP SWAP2 SWAP1 POP JUMP JUMPDEST PUSH2 0x30F DUP2 PUSH2 0x2FA JUMP JUMPDEST DUP3 MSTORE POP POP JUMP JUMPDEST PUSH1 0x0 PUSH1 0x20 DUP3 ADD SWAP1 POP PUSH2 0x32A PUSH1 0x0 DUP4 ADD DUP5 PUSH2 0x306 JUMP JUMPDEST SWAP3 SWAP2 POP POP JUMP JUMPDEST PUSH1 0x0 PUSH32 0xFF00000000000000000000000000000000000000000000000000000000000000 DUP3 AND SWAP1 POP SWAP2 SWAP1 POP JUMP JUMPDEST PUSH2 0x365 DUP2 PUSH2 0x330 JUMP JUMPDEST DUP3 MSTORE POP POP JUMP JUMPDEST PUSH1 0x0 PUSH1 0x20 DUP3 ADD SWAP1 POP PUSH2 0x380 PUSH1 0x0 DUP4 ADD DUP5 PUSH2 0x35C JUMP JUMPDEST SWAP3 SWAP2 POP POP JUMP JUMPDEST PUSH1 0x0 PUSH2 0x391 DUP3 PUSH2 0x29E JUMP JUMPDEST SWAP1 POP SWAP2 SWAP1 POP JUMP JUMPDEST PUSH2 0x3A1 DUP2 PUSH2 0x386 JUMP JUMPDEST DUP3 MSTORE POP POP JUMP JUMPDEST PUSH1 0x0 PUSH1 0x20 DUP3 ADD SWAP1 POP PUSH2 0x3BC PUSH1 0x0 DUP4 ADD DUP5 PUSH2 0x398 JUMP JUMPDEST SWAP3 SWAP2 POP POP JUMP INVALID LOG2 PUSH5 0x6970667358 0x22 SLT KECCAK256 0xA6 0x2D PUSH13 0x71A5124BA2D68876912CE2B5E2 0xFC 0xD RETURN 0xE6 PUSH14 0x9FF89A7D9FEC465D25DFB664736F PUSH13 0x63430008120033000000000000 "
				},
				"gasEstimates": {
					"creation": {
						"codeDepositCost": "203200",
						"executionCost": "223700",
						"totalCost": "426900"
					},
					"external": {
						"_byte()": "2515",
						"_byte32()": "2474",
						"balance()": "2495",
						"flag()": "2471",
						"me()": "2652",
						"num1()": "2452",
						"num1_1()": "2451",
						"num2()": "2430",
						"other()": "2581"
					}
				},
				"methodIdentifiers": {
					"_byte()": "aeb6f292",
					"_byte32()": "3f346102",
					"balance()": "b69ef8a8",
					"flag()": "890eba68",
					"me()": "cb12b48f",
					"num1()": "3b9eac4b",
					"num1_1()": "a6dc7563",
					"num2()": "15d4266c",
					"other()": "85295877"
				}
			},
			"storageLayout": {
				"storage": [
					{
						"astId": 4,
						"contract": "Study/Type.sol:text",
						"label": "num1",
						"offset": 0,
						"slot": "0",
						"type": "t_uint256"
					},
					{
						"astId": 9,
						"contract": "Study/Type.sol:text",
						"label": "num1_1",
						"offset": 0,
						"slot": "1",
						"type": "t_uint256"
					},
					{
						"astId": 12,
						"contract": "Study/Type.sol:text",
						"label": "num2",
						"offset": 0,
						"slot": "2",
						"type": "t_uint256"
					},
					{
						"astId": 17,
						"contract": "Study/Type.sol:text",
						"label": "flag",
						"offset": 0,
						"slot": "3",
						"type": "t_bool"
					},
					{
						"astId": 20,
						"contract": "Study/Type.sol:text",
						"label": "me",
						"offset": 1,
						"slot": "3",
						"type": "t_address"
					},
					{
						"astId": 26,
						"contract": "Study/Type.sol:text",
						"label": "other",
						"offset": 0,
						"slot": "4",
						"type": "t_address_payable"
					},
					{
						"astId": 30,
						"contract": "Study/Type.sol:text",
						"label": "balance",
						"offset": 0,
						"slot": "5",
						"type": "t_uint256"
					},
					{
						"astId": 33,
						"contract": "Study/Type.sol:text",
						"label": "_byte32",
						"offset": 0,
						"slot": "6",
						"type": "t_bytes32"
					},
					{
						"astId": 38,
						"contract": "Study/Type.sol:text",
						"label": "_byte",
						"offset": 0,
						"slot": "7",
						"type": "t_bytes1"
					}
				],
				"types": {
					"t_address": {
						"encoding": "inplace",
						"label": "address",
						"numberOfBytes": "20"
					},
					"t_address_payable": {
						"encoding": "inplace",
						"label": "address payable",
						"numberOfBytes": "20"
					},
					"t_bool": {
						"encoding": "inplace",
						"label": "bool",
						"numberOfBytes": "1"
					},
					"t_bytes1": {
						"encoding": "inplace",
						"label": "bytes1",
						"numberOfBytes": "1"
					},
					"t_bytes32": {
						"encoding": "inplace",
						"label": "bytes32",
						"numberOfBytes": "32"
					},
					"t_uint256": {
						"encoding": "inplace",
						"label": "uint256",
						"numberOfBytes": "32"
					}
				}
			},
			"userdoc": {
				"kind": "user",
				"methods": {},
				"version": 1
			}
		}
	}
}