{
	"Study/Func_Return.sol": {
		"text": {
			"abi": [
				{
					"inputs": [],
					"name": "returnMultiple",
					"outputs": [
						{
							"internalType": "uint256",
							"name": "",
							"type": "uint256"
						},
						{
							"internalType": "bool",
							"name": "",
							"type": "bool"
						},
						{
							"internalType": "uint256[3]",
							"name": "",
							"type": "uint256[3]"
						}
					],
					"stateMutability": "pure",
					"type": "function"
				},
				{
					"inputs": [],
					"name": "returnNamed",
					"outputs": [
						{
							"internalType": "uint256",
							"name": "_number",
							"type": "uint256"
						},
						{
							"internalType": "bool",
							"name": "_bool",
							"type": "bool"
						},
						{
							"internalType": "uint256[3]",
							"name": "_array",
							"type": "uint256[3]"
						}
					],
					"stateMutability": "pure",
					"type": "function"
				},
				{
					"inputs": [],
					"name": "returntype",
					"outputs": [
						{
							"internalType": "bool",
							"name": "",
							"type": "bool"
						}
					],
					"stateMutability": "pure",
					"type": "function"
				}
			],
			"devdoc": {
				"kind": "dev",
				"methods": {},
				"version": 1
			},
			"evm": {
				"assembly": "    /* \"Study/Func_Return.sol\":60:769  contract text{... */\n  mstore(0x40, 0x80)\n  callvalue\n  dup1\n  iszero\n  tag_1\n  jumpi\n  0x00\n  dup1\n  revert\ntag_1:\n  pop\n  dataSize(sub_0)\n  dup1\n  dataOffset(sub_0)\n  0x00\n  codecopy\n  0x00\n  return\nstop\n\nsub_0: assembly {\n        /* \"Study/Func_Return.sol\":60:769  contract text{... */\n      mstore(0x40, 0x80)\n      callvalue\n      dup1\n      iszero\n      tag_1\n      jumpi\n      0x00\n      dup1\n      revert\n    tag_1:\n      pop\n      jumpi(tag_2, lt(calldatasize, 0x04))\n      shr(0xe0, calldataload(0x00))\n      dup1\n      0x3dece511\n      eq\n      tag_3\n      jumpi\n      dup1\n      0x6102c7c6\n      eq\n      tag_4\n      jumpi\n      dup1\n      0xe61e4008\n      eq\n      tag_5\n      jumpi\n    tag_2:\n      0x00\n      dup1\n      revert\n        /* \"Study/Func_Return.sol\":269:457  function returnNamed() public pure returns(uint256 _number, bool _bool, uint256[3] memory _array){... */\n    tag_3:\n      tag_6\n      tag_7\n      jump\t// in\n    tag_6:\n      mload(0x40)\n      tag_8\n      swap4\n      swap3\n      swap2\n      swap1\n      tag_9\n      jump\t// in\n    tag_8:\n      mload(0x40)\n      dup1\n      swap2\n      sub\n      swap1\n      return\n        /* \"Study/Func_Return.sol\":488:760  function returntype()public pure returns(bool)  {... */\n    tag_4:\n      tag_10\n      tag_11\n      jump\t// in\n    tag_10:\n      mload(0x40)\n      tag_12\n      swap2\n      swap1\n      tag_13\n      jump\t// in\n    tag_12:\n      mload(0x40)\n      dup1\n      swap2\n      sub\n      swap1\n      return\n        /* \"Study/Func_Return.sol\":107:238  function returnMultiple() public pure returns(uint256, bool, uint256[3] memory){... */\n    tag_5:\n      tag_14\n      tag_15\n      jump\t// in\n    tag_14:\n      mload(0x40)\n      tag_16\n      swap4\n      swap3\n      swap2\n      swap1\n      tag_9\n      jump\t// in\n    tag_16:\n      mload(0x40)\n      dup1\n      swap2\n      sub\n      swap1\n      return\n        /* \"Study/Func_Return.sol\":269:457  function returnNamed() public pure returns(uint256 _number, bool _bool, uint256[3] memory _array){... */\n    tag_7:\n        /* \"Study/Func_Return.sol\":312:327  uint256 _number */\n      0x00\n        /* \"Study/Func_Return.sol\":329:339  bool _bool */\n      dup1\n        /* \"Study/Func_Return.sol\":341:365  uint256[3] memory _array */\n      tag_17\n      tag_18\n      jump\t// in\n    tag_17:\n        /* \"Study/Func_Return.sol\":387:388  2 */\n      0x02\n        /* \"Study/Func_Return.sol\":377:388  _number = 2 */\n      swap3\n      pop\n        /* \"Study/Func_Return.sol\":407:412  false */\n      0x00\n        /* \"Study/Func_Return.sol\":399:412  _bool = false */\n      swap2\n      pop\n        /* \"Study/Func_Return.sol\":424:449  _array = [uint256(3),2,1] */\n      mload(0x40)\n      dup1\n      0x60\n      add\n      0x40\n      mstore\n      dup1\n        /* \"Study/Func_Return.sol\":442:443  3 */\n      0x03\n        /* \"Study/Func_Return.sol\":424:449  _array = [uint256(3),2,1] */\n      dup2\n      mstore\n      0x20\n      add\n        /* \"Study/Func_Return.sol\":445:446  2 */\n      0x02\n        /* \"Study/Func_Return.sol\":424:449  _array = [uint256(3),2,1] */\n      dup2\n      mstore\n      0x20\n      add\n        /* \"Study/Func_Return.sol\":447:448  1 */\n      0x01\n        /* \"Study/Func_Return.sol\":424:449  _array = [uint256(3),2,1] */\n      dup2\n      mstore\n      pop\n      swap1\n      pop\n        /* \"Study/Func_Return.sol\":269:457  function returnNamed() public pure returns(uint256 _number, bool _bool, uint256[3] memory _array){... */\n      swap1\n      swap2\n      swap3\n      jump\t// out\n        /* \"Study/Func_Return.sol\":488:760  function returntype()public pure returns(bool)  {... */\n    tag_11:\n        /* \"Study/Func_Return.sol\":529:533  bool */\n      0x00\n        /* \"Study/Func_Return.sol\":547:562  uint256 _number */\n      dup1\n        /* \"Study/Func_Return.sol\":573:583  bool _bool */\n      0x00\n        /* \"Study/Func_Return.sol\":594:605  bool _bool2 */\n      dup1\n        /* \"Study/Func_Return.sol\":616:640  uint256[3] memory _array */\n      tag_21\n      tag_18\n      jump\t// in\n    tag_21:\n        /* \"Study/Func_Return.sol\":676:689  returnNamed() */\n      tag_22\n        /* \"Study/Func_Return.sol\":676:687  returnNamed */\n      tag_7\n        /* \"Study/Func_Return.sol\":676:689  returnNamed() */\n      jump\t// in\n    tag_22:\n        /* \"Study/Func_Return.sol\":651:689  (_number,_bool,_array) = returnNamed() */\n      dup1\n      swap4\n      pop\n      dup2\n      swap6\n      pop\n      dup3\n      swap7\n      pop\n      pop\n      pop\n      pop\n        /* \"Study/Func_Return.sol\":715:728  returnNamed() */\n      tag_23\n        /* \"Study/Func_Return.sol\":715:726  returnNamed */\n      tag_7\n        /* \"Study/Func_Return.sol\":715:728  returnNamed() */\n      jump\t// in\n    tag_23:\n        /* \"Study/Func_Return.sol\":700:728  ( ,_bool2, ) = returnNamed() */\n      swap1\n      swap2\n      pop\n      pop\n      dup1\n      swap3\n      pop\n      pop\n        /* \"Study/Func_Return.sol\":746:752  _bool2 */\n      dup2\n        /* \"Study/Func_Return.sol\":739:752  return _bool2 */\n      swap5\n      pop\n      pop\n      pop\n      pop\n      pop\n        /* \"Study/Func_Return.sol\":488:760  function returntype()public pure returns(bool)  {... */\n      swap1\n      jump\t// out\n        /* \"Study/Func_Return.sol\":107:238  function returnMultiple() public pure returns(uint256, bool, uint256[3] memory){... */\n    tag_15:\n        /* \"Study/Func_Return.sol\":153:160  uint256 */\n      0x00\n        /* \"Study/Func_Return.sol\":162:166  bool */\n      dup1\n        /* \"Study/Func_Return.sol\":168:185  uint256[3] memory */\n      tag_24\n      tag_18\n      jump\t// in\n    tag_24:\n        /* \"Study/Func_Return.sol\":204:205  1 */\n      0x01\n        /* \"Study/Func_Return.sol\":207:211  true */\n      dup1\n        /* \"Study/Func_Return.sol\":197:230  return(1, true, [uint256(1),2,5]) */\n      mload(0x40)\n      dup1\n      0x60\n      add\n      0x40\n      mstore\n      dup1\n        /* \"Study/Func_Return.sol\":222:223  1 */\n      0x01\n        /* \"Study/Func_Return.sol\":197:230  return(1, true, [uint256(1),2,5]) */\n      dup2\n      mstore\n      0x20\n      add\n        /* \"Study/Func_Return.sol\":225:226  2 */\n      0x02\n        /* \"Study/Func_Return.sol\":197:230  return(1, true, [uint256(1),2,5]) */\n      dup2\n      mstore\n      0x20\n      add\n        /* \"Study/Func_Return.sol\":227:228  5 */\n      0x05\n        /* \"Study/Func_Return.sol\":197:230  return(1, true, [uint256(1),2,5]) */\n      dup2\n      mstore\n      pop\n      swap3\n      pop\n      swap3\n      pop\n      swap3\n      pop\n        /* \"Study/Func_Return.sol\":107:238  function returnMultiple() public pure returns(uint256, bool, uint256[3] memory){... */\n      swap1\n      swap2\n      swap3\n      jump\t// out\n    tag_18:\n      mload(0x40)\n      dup1\n      0x60\n      add\n      0x40\n      mstore\n      dup1\n      0x03\n      swap1\n      0x20\n      dup3\n      mul\n      dup1\n      calldatasize\n      dup4\n      calldatacopy\n      dup1\n      dup3\n      add\n      swap2\n      pop\n      pop\n      swap1\n      pop\n      pop\n      swap1\n      jump\t// out\n        /* \"#utility.yul\":7:84   */\n    tag_26:\n        /* \"#utility.yul\":44:51   */\n      0x00\n        /* \"#utility.yul\":73:78   */\n      dup2\n        /* \"#utility.yul\":62:78   */\n      swap1\n      pop\n        /* \"#utility.yul\":7:84   */\n      swap2\n      swap1\n      pop\n      jump\t// out\n        /* \"#utility.yul\":90:208   */\n    tag_27:\n        /* \"#utility.yul\":177:201   */\n      tag_40\n        /* \"#utility.yul\":195:200   */\n      dup2\n        /* \"#utility.yul\":177:201   */\n      tag_26\n      jump\t// in\n    tag_40:\n        /* \"#utility.yul\":172:175   */\n      dup3\n        /* \"#utility.yul\":165:202   */\n      mstore\n        /* \"#utility.yul\":90:208   */\n      pop\n      pop\n      jump\t// out\n        /* \"#utility.yul\":214:304   */\n    tag_28:\n        /* \"#utility.yul\":248:255   */\n      0x00\n        /* \"#utility.yul\":291:296   */\n      dup2\n        /* \"#utility.yul\":284:297   */\n      iszero\n        /* \"#utility.yul\":277:298   */\n      iszero\n        /* \"#utility.yul\":266:298   */\n      swap1\n      pop\n        /* \"#utility.yul\":214:304   */\n      swap2\n      swap1\n      pop\n      jump\t// out\n        /* \"#utility.yul\":310:419   */\n    tag_29:\n        /* \"#utility.yul\":391:412   */\n      tag_43\n        /* \"#utility.yul\":406:411   */\n      dup2\n        /* \"#utility.yul\":391:412   */\n      tag_28\n      jump\t// in\n    tag_43:\n        /* \"#utility.yul\":386:389   */\n      dup3\n        /* \"#utility.yul\":379:413   */\n      mstore\n        /* \"#utility.yul\":310:419   */\n      pop\n      pop\n      jump\t// out\n        /* \"#utility.yul\":425:529   */\n    tag_30:\n        /* \"#utility.yul\":490:496   */\n      0x00\n        /* \"#utility.yul\":518:522   */\n      0x03\n        /* \"#utility.yul\":508:522   */\n      swap1\n      pop\n        /* \"#utility.yul\":425:529   */\n      swap2\n      swap1\n      pop\n      jump\t// out\n        /* \"#utility.yul\":535:678   */\n    tag_31:\n        /* \"#utility.yul\":632:643   */\n      0x00\n        /* \"#utility.yul\":669:672   */\n      dup2\n        /* \"#utility.yul\":654:672   */\n      swap1\n      pop\n        /* \"#utility.yul\":535:678   */\n      swap3\n      swap2\n      pop\n      pop\n      jump\t// out\n        /* \"#utility.yul\":684:782   */\n    tag_32:\n        /* \"#utility.yul\":749:753   */\n      0x00\n        /* \"#utility.yul\":772:775   */\n      dup2\n        /* \"#utility.yul\":764:775   */\n      swap1\n      pop\n        /* \"#utility.yul\":684:782   */\n      swap2\n      swap1\n      pop\n      jump\t// out\n        /* \"#utility.yul\":788:896   */\n    tag_33:\n        /* \"#utility.yul\":865:889   */\n      tag_48\n        /* \"#utility.yul\":883:888   */\n      dup2\n        /* \"#utility.yul\":865:889   */\n      tag_26\n      jump\t// in\n    tag_48:\n        /* \"#utility.yul\":860:863   */\n      dup3\n        /* \"#utility.yul\":853:890   */\n      mstore\n        /* \"#utility.yul\":788:896   */\n      pop\n      pop\n      jump\t// out\n        /* \"#utility.yul\":902:1081   */\n    tag_34:\n        /* \"#utility.yul\":971:981   */\n      0x00\n        /* \"#utility.yul\":992:1038   */\n      tag_50\n        /* \"#utility.yul\":1034:1037   */\n      dup4\n        /* \"#utility.yul\":1026:1032   */\n      dup4\n        /* \"#utility.yul\":992:1038   */\n      tag_33\n      jump\t// in\n    tag_50:\n        /* \"#utility.yul\":1070:1074   */\n      0x20\n        /* \"#utility.yul\":1065:1068   */\n      dup4\n        /* \"#utility.yul\":1061:1075   */\n      add\n        /* \"#utility.yul\":1047:1075   */\n      swap1\n      pop\n        /* \"#utility.yul\":902:1081   */\n      swap3\n      swap2\n      pop\n      pop\n      jump\t// out\n        /* \"#utility.yul\":1087:1198   */\n    tag_35:\n        /* \"#utility.yul\":1155:1159   */\n      0x00\n        /* \"#utility.yul\":1187:1191   */\n      0x20\n        /* \"#utility.yul\":1182:1185   */\n      dup3\n        /* \"#utility.yul\":1178:1192   */\n      add\n        /* \"#utility.yul\":1170:1192   */\n      swap1\n      pop\n        /* \"#utility.yul\":1087:1198   */\n      swap2\n      swap1\n      pop\n      jump\t// out\n        /* \"#utility.yul\":1236:1930   */\n    tag_36:\n        /* \"#utility.yul\":1372:1424   */\n      tag_53\n        /* \"#utility.yul\":1418:1423   */\n      dup2\n        /* \"#utility.yul\":1372:1424   */\n      tag_30\n      jump\t// in\n    tag_53:\n        /* \"#utility.yul\":1440:1524   */\n      tag_54\n        /* \"#utility.yul\":1517:1523   */\n      dup2\n        /* \"#utility.yul\":1512:1515   */\n      dup5\n        /* \"#utility.yul\":1440:1524   */\n      tag_31\n      jump\t// in\n    tag_54:\n        /* \"#utility.yul\":1433:1524   */\n      swap3\n      pop\n        /* \"#utility.yul\":1548:1602   */\n      tag_55\n        /* \"#utility.yul\":1596:1601   */\n      dup3\n        /* \"#utility.yul\":1548:1602   */\n      tag_32\n      jump\t// in\n    tag_55:\n        /* \"#utility.yul\":1625:1632   */\n      dup1\n        /* \"#utility.yul\":1656:1657   */\n      0x00\n        /* \"#utility.yul\":1641:1923   */\n    tag_56:\n        /* \"#utility.yul\":1666:1672   */\n      dup4\n        /* \"#utility.yul\":1663:1664   */\n      dup2\n        /* \"#utility.yul\":1660:1673   */\n      lt\n        /* \"#utility.yul\":1641:1923   */\n      iszero\n      tag_58\n      jumpi\n        /* \"#utility.yul\":1742:1748   */\n      dup2\n        /* \"#utility.yul\":1736:1749   */\n      mload\n        /* \"#utility.yul\":1769:1832   */\n      tag_59\n        /* \"#utility.yul\":1828:1831   */\n      dup8\n        /* \"#utility.yul\":1813:1826   */\n      dup3\n        /* \"#utility.yul\":1769:1832   */\n      tag_34\n      jump\t// in\n    tag_59:\n        /* \"#utility.yul\":1762:1832   */\n      swap7\n      pop\n        /* \"#utility.yul\":1855:1913   */\n      tag_60\n        /* \"#utility.yul\":1906:1912   */\n      dup4\n        /* \"#utility.yul\":1855:1913   */\n      tag_35\n      jump\t// in\n    tag_60:\n        /* \"#utility.yul\":1845:1913   */\n      swap3\n      pop\n        /* \"#utility.yul\":1701:1923   */\n      pop\n        /* \"#utility.yul\":1688:1689   */\n      0x01\n        /* \"#utility.yul\":1685:1686   */\n      dup2\n        /* \"#utility.yul\":1681:1690   */\n      add\n        /* \"#utility.yul\":1676:1690   */\n      swap1\n      pop\n        /* \"#utility.yul\":1641:1923   */\n      jump(tag_56)\n    tag_58:\n        /* \"#utility.yul\":1645:1659   */\n      pop\n        /* \"#utility.yul\":1348:1930   */\n      pop\n      pop\n      pop\n        /* \"#utility.yul\":1236:1930   */\n      pop\n      pop\n      jump\t// out\n        /* \"#utility.yul\":1936:2459   */\n    tag_9:\n        /* \"#utility.yul\":2125:2129   */\n      0x00\n        /* \"#utility.yul\":2163:2166   */\n      0xa0\n        /* \"#utility.yul\":2152:2161   */\n      dup3\n        /* \"#utility.yul\":2148:2167   */\n      add\n        /* \"#utility.yul\":2140:2167   */\n      swap1\n      pop\n        /* \"#utility.yul\":2177:2248   */\n      tag_62\n        /* \"#utility.yul\":2245:2246   */\n      0x00\n        /* \"#utility.yul\":2234:2243   */\n      dup4\n        /* \"#utility.yul\":2230:2247   */\n      add\n        /* \"#utility.yul\":2221:2227   */\n      dup7\n        /* \"#utility.yul\":2177:2248   */\n      tag_27\n      jump\t// in\n    tag_62:\n        /* \"#utility.yul\":2258:2324   */\n      tag_63\n        /* \"#utility.yul\":2320:2322   */\n      0x20\n        /* \"#utility.yul\":2309:2318   */\n      dup4\n        /* \"#utility.yul\":2305:2323   */\n      add\n        /* \"#utility.yul\":2296:2302   */\n      dup6\n        /* \"#utility.yul\":2258:2324   */\n      tag_29\n      jump\t// in\n    tag_63:\n        /* \"#utility.yul\":2334:2452   */\n      tag_64\n        /* \"#utility.yul\":2448:2450   */\n      0x40\n        /* \"#utility.yul\":2437:2446   */\n      dup4\n        /* \"#utility.yul\":2433:2451   */\n      add\n        /* \"#utility.yul\":2424:2430   */\n      dup5\n        /* \"#utility.yul\":2334:2452   */\n      tag_36\n      jump\t// in\n    tag_64:\n        /* \"#utility.yul\":1936:2459   */\n      swap5\n      swap4\n      pop\n      pop\n      pop\n      pop\n      jump\t// out\n        /* \"#utility.yul\":2465:2675   */\n    tag_13:\n        /* \"#utility.yul\":2552:2556   */\n      0x00\n        /* \"#utility.yul\":2590:2592   */\n      0x20\n        /* \"#utility.yul\":2579:2588   */\n      dup3\n        /* \"#utility.yul\":2575:2593   */\n      add\n        /* \"#utility.yul\":2567:2593   */\n      swap1\n      pop\n        /* \"#utility.yul\":2603:2668   */\n      tag_66\n        /* \"#utility.yul\":2665:2666   */\n      0x00\n        /* \"#utility.yul\":2654:2663   */\n      dup4\n        /* \"#utility.yul\":2650:2667   */\n      add\n        /* \"#utility.yul\":2641:2647   */\n      dup5\n        /* \"#utility.yul\":2603:2668   */\n      tag_29\n      jump\t// in\n    tag_66:\n        /* \"#utility.yul\":2465:2675   */\n      swap3\n      swap2\n      pop\n      pop\n      jump\t// out\n\n    auxdata: 0xa26469706673582212204f4fff342cd5713c707f2439db12d639483be7d78366acb890307240a8cd30e264736f6c63430008120033\n}\n",
				"bytecode": {
					"linkReferences": {},
					"object": "608060405234801561001057600080fd5b506102d8806100206000396000f3fe608060405234801561001057600080fd5b50600436106100415760003560e01c80633dece511146100465780636102c7c614610066578063e61e400814610084575b600080fd5b61004e6100a4565b60405161005d93929190610250565b60405180910390f35b61006e6100dc565b60405161007b9190610287565b60405180910390f35b61008c610118565b60405161009b93929190610250565b60405180910390f35b6000806100af61014f565b60029250600091506040518060600160405280600381526020016002815260200160018152509050909192565b6000806000806100ea61014f565b6100f26100a4565b8093508195508296505050506101066100a4565b90915050809250508194505050505090565b60008061012361014f565b600180604051806060016040528060018152602001600281526020016005815250925092509250909192565b6040518060600160405280600390602082028036833780820191505090505090565b6000819050919050565b61018481610171565b82525050565b60008115159050919050565b61019f8161018a565b82525050565b600060039050919050565b600081905092915050565b6000819050919050565b6101ce81610171565b82525050565b60006101e083836101c5565b60208301905092915050565b6000602082019050919050565b610202816101a5565b61020c81846101b0565b9250610217826101bb565b8060005b8381101561024857815161022f87826101d4565b965061023a836101ec565b92505060018101905061021b565b505050505050565b600060a082019050610265600083018661017b565b6102726020830185610196565b61027f60408301846101f9565b949350505050565b600060208201905061029c6000830184610196565b9291505056fea26469706673582212204f4fff342cd5713c707f2439db12d639483be7d78366acb890307240a8cd30e264736f6c63430008120033",
					"opcodes": "PUSH1 0x80 PUSH1 0x40 MSTORE CALLVALUE DUP1 ISZERO PUSH2 0x10 JUMPI PUSH1 0x0 DUP1 REVERT JUMPDEST POP PUSH2 0x2D8 DUP1 PUSH2 0x20 PUSH1 0x0 CODECOPY PUSH1 0x0 RETURN INVALID PUSH1 0x80 PUSH1 0x40 MSTORE CALLVALUE DUP1 ISZERO PUSH2 0x10 JUMPI PUSH1 0x0 DUP1 REVERT JUMPDEST POP PUSH1 0x4 CALLDATASIZE LT PUSH2 0x41 JUMPI PUSH1 0x0 CALLDATALOAD PUSH1 0xE0 SHR DUP1 PUSH4 0x3DECE511 EQ PUSH2 0x46 JUMPI DUP1 PUSH4 0x6102C7C6 EQ PUSH2 0x66 JUMPI DUP1 PUSH4 0xE61E4008 EQ PUSH2 0x84 JUMPI JUMPDEST PUSH1 0x0 DUP1 REVERT JUMPDEST PUSH2 0x4E PUSH2 0xA4 JUMP JUMPDEST PUSH1 0x40 MLOAD PUSH2 0x5D SWAP4 SWAP3 SWAP2 SWAP1 PUSH2 0x250 JUMP JUMPDEST PUSH1 0x40 MLOAD DUP1 SWAP2 SUB SWAP1 RETURN JUMPDEST PUSH2 0x6E PUSH2 0xDC JUMP JUMPDEST PUSH1 0x40 MLOAD PUSH2 0x7B SWAP2 SWAP1 PUSH2 0x287 JUMP JUMPDEST PUSH1 0x40 MLOAD DUP1 SWAP2 SUB SWAP1 RETURN JUMPDEST PUSH2 0x8C PUSH2 0x118 JUMP JUMPDEST PUSH1 0x40 MLOAD PUSH2 0x9B SWAP4 SWAP3 SWAP2 SWAP1 PUSH2 0x250 JUMP JUMPDEST PUSH1 0x40 MLOAD DUP1 SWAP2 SUB SWAP1 RETURN JUMPDEST PUSH1 0x0 DUP1 PUSH2 0xAF PUSH2 0x14F JUMP JUMPDEST PUSH1 0x2 SWAP3 POP PUSH1 0x0 SWAP2 POP PUSH1 0x40 MLOAD DUP1 PUSH1 0x60 ADD PUSH1 0x40 MSTORE DUP1 PUSH1 0x3 DUP2 MSTORE PUSH1 0x20 ADD PUSH1 0x2 DUP2 MSTORE PUSH1 0x20 ADD PUSH1 0x1 DUP2 MSTORE POP SWAP1 POP SWAP1 SWAP2 SWAP3 JUMP JUMPDEST PUSH1 0x0 DUP1 PUSH1 0x0 DUP1 PUSH2 0xEA PUSH2 0x14F JUMP JUMPDEST PUSH2 0xF2 PUSH2 0xA4 JUMP JUMPDEST DUP1 SWAP4 POP DUP2 SWAP6 POP DUP3 SWAP7 POP POP POP POP PUSH2 0x106 PUSH2 0xA4 JUMP JUMPDEST SWAP1 SWAP2 POP POP DUP1 SWAP3 POP POP DUP2 SWAP5 POP POP POP POP POP SWAP1 JUMP JUMPDEST PUSH1 0x0 DUP1 PUSH2 0x123 PUSH2 0x14F JUMP JUMPDEST PUSH1 0x1 DUP1 PUSH1 0x40 MLOAD DUP1 PUSH1 0x60 ADD PUSH1 0x40 MSTORE DUP1 PUSH1 0x1 DUP2 MSTORE PUSH1 0x20 ADD PUSH1 0x2 DUP2 MSTORE PUSH1 0x20 ADD PUSH1 0x5 DUP2 MSTORE POP SWAP3 POP SWAP3 POP SWAP3 POP SWAP1 SWAP2 SWAP3 JUMP JUMPDEST PUSH1 0x40 MLOAD DUP1 PUSH1 0x60 ADD PUSH1 0x40 MSTORE DUP1 PUSH1 0x3 SWAP1 PUSH1 0x20 DUP3 MUL DUP1 CALLDATASIZE DUP4 CALLDATACOPY DUP1 DUP3 ADD SWAP2 POP POP SWAP1 POP POP SWAP1 JUMP JUMPDEST PUSH1 0x0 DUP2 SWAP1 POP SWAP2 SWAP1 POP JUMP JUMPDEST PUSH2 0x184 DUP2 PUSH2 0x171 JUMP JUMPDEST DUP3 MSTORE POP POP JUMP JUMPDEST PUSH1 0x0 DUP2 ISZERO ISZERO SWAP1 POP SWAP2 SWAP1 POP JUMP JUMPDEST PUSH2 0x19F DUP2 PUSH2 0x18A JUMP JUMPDEST DUP3 MSTORE POP POP JUMP JUMPDEST PUSH1 0x0 PUSH1 0x3 SWAP1 POP SWAP2 SWAP1 POP JUMP JUMPDEST PUSH1 0x0 DUP2 SWAP1 POP SWAP3 SWAP2 POP POP JUMP JUMPDEST PUSH1 0x0 DUP2 SWAP1 POP SWAP2 SWAP1 POP JUMP JUMPDEST PUSH2 0x1CE DUP2 PUSH2 0x171 JUMP JUMPDEST DUP3 MSTORE POP POP JUMP JUMPDEST PUSH1 0x0 PUSH2 0x1E0 DUP4 DUP4 PUSH2 0x1C5 JUMP JUMPDEST PUSH1 0x20 DUP4 ADD SWAP1 POP SWAP3 SWAP2 POP POP JUMP JUMPDEST PUSH1 0x0 PUSH1 0x20 DUP3 ADD SWAP1 POP SWAP2 SWAP1 POP JUMP JUMPDEST PUSH2 0x202 DUP2 PUSH2 0x1A5 JUMP JUMPDEST PUSH2 0x20C DUP2 DUP5 PUSH2 0x1B0 JUMP JUMPDEST SWAP3 POP PUSH2 0x217 DUP3 PUSH2 0x1BB JUMP JUMPDEST DUP1 PUSH1 0x0 JUMPDEST DUP4 DUP2 LT ISZERO PUSH2 0x248 JUMPI DUP2 MLOAD PUSH2 0x22F DUP8 DUP3 PUSH2 0x1D4 JUMP JUMPDEST SWAP7 POP PUSH2 0x23A DUP4 PUSH2 0x1EC JUMP JUMPDEST SWAP3 POP POP PUSH1 0x1 DUP2 ADD SWAP1 POP PUSH2 0x21B JUMP JUMPDEST POP POP POP POP POP POP JUMP JUMPDEST PUSH1 0x0 PUSH1 0xA0 DUP3 ADD SWAP1 POP PUSH2 0x265 PUSH1 0x0 DUP4 ADD DUP7 PUSH2 0x17B JUMP JUMPDEST PUSH2 0x272 PUSH1 0x20 DUP4 ADD DUP6 PUSH2 0x196 JUMP JUMPDEST PUSH2 0x27F PUSH1 0x40 DUP4 ADD DUP5 PUSH2 0x1F9 JUMP JUMPDEST SWAP5 SWAP4 POP POP POP POP JUMP JUMPDEST PUSH1 0x0 PUSH1 0x20 DUP3 ADD SWAP1 POP PUSH2 0x29C PUSH1 0x0 DUP4 ADD DUP5 PUSH2 0x196 JUMP JUMPDEST SWAP3 SWAP2 POP POP JUMP INVALID LOG2 PUSH5 0x6970667358 0x22 SLT KECCAK256 0x4F 0x4F SELFDESTRUCT CALLVALUE 0x2C 0xD5 PUSH18 0x3C707F2439DB12D639483BE7D78366ACB890 ADDRESS PUSH19 0x40A8CD30E264736F6C63430008120033000000 "
				},
				"gasEstimates": {
					"creation": {
						"codeDepositCost": "145600",
						"executionCost": "190",
						"totalCost": "145790"
					},
					"external": {
						"returnMultiple()": "infinite",
						"returnNamed()": "infinite",
						"returntype()": "infinite"
					}
				},
				"methodIdentifiers": {
					"returnMultiple()": "e61e4008",
					"returnNamed()": "3dece511",
					"returntype()": "6102c7c6"
				}
			},
			"storageLayout": {
				"storage": [],
				"types": null
			},
			"userdoc": {
				"kind": "user",
				"methods": {},
				"version": 1
			}
		}
	}
}